:020000040800F2
:100000005817002001010008D33400085D290008BA
:10001000D134000895090008894500080000000057
:10002000000000000000000000000000913E0008F9
:100030004111000800000000A13C00080D3F00082D
:100040001B0100089D3C00081B0100081B01000863
:100050001B0100081B0100081B0100081B01000810
:100060001B0100081B0100081B0100081B01000800
:10007000B1100008BD100008C9100008D510000814
:10008000E11000081B0100081B0100081B0100080B
:100090001B0100081B0100081B0100081B010008D0
:1000A0001B0100081B0100081B0100081B010008C0
:1000B0001B0100081B0100081B0100081B010008B0
:1000C0001B0100081B0100081B0100081B010008A0
:1000D0001B010008FD4400083D4500084945000893
:1000E0001B0100081B0100081B010008DFF80CD0F1
:1000F00000F03EFC00480047F94E00085817002069
:100100000648804706480047FEE7FEE7FEE7FEE7B1
:10011000FEE7FEE7FEE7FEE7FEE7FEE7693F0008D1
:10012000ED000008202A04DB203A21FA02F0002129
:10013000704721FA02F3D040C2F1200291400843F7
:1001400019467047D2B201E000F8012B491EFBD2DC
:1001500070470022F6E710B513460A4604461946D2
:10016000FFF7F0FF204610BDF0B480EA0102D40F83
:100170004200B2EB410F02D20246084611464A0045
:1001800042D0C30DDDB2C1F3C752AD1A202D35DA0E
:10019000C1F3160141F4000204B15242C5F1200638
:1001A00002FA06F12A411044B3EBD05F23D0C4B168
:1001B000012DA0EBC35009DCF0BC4FF0004202EA75
:1001C000C352DBB200F5000000F017BB400000F1A5
:1001D000807000EBC350A0F1807040EAD1704900FC
:1001E00009E0490841EAC071A0EBC35000F50000E6
:1001F000400800EBC350F0BC00F0F6BA61420122A7
:1002000002EB4101001BF6E7F0BC704781F00041B2
:10021000AAE780F00040A7E780EA010210B502F0EB
:100220000043400022D04A001FD0010E01EB1261B2
:10023000C0F35600C2F3560240F4000042F400023C
:10024000A0FB022000047F39140400D0401C50EAB7
:10025000124001D44000491EC2B20C0604EBD0107B
:10026000401C4008802A02D003E0002010BD20F08E
:100270000100002900DA0020184310BD30B480EAE4
:10028000010202F0004530F0004221F0004013D09E
:1002900090B1C30DD40DC2F31601C0F31600E41AD9
:1002A00041F4000140F400027D34914201D3641C0A
:1002B00000E04900002C02DA30BC002070474FF407
:1002C00000000023914201D3891A034340084FEAFA
:1002D0004101F7D151B1914202D14FF0004105E007
:1002E00002D24FF0010101E06FF0010103EBC450B5
:1002F000284430BC00F078BA2DE9FE4F804681EAF0
:100300000300C00F0C46009021F0004123F000458F
:10031000B8EB0200A94105D24046214690461C4652
:100320000B46024623F00040104347D0270DC7F389
:100330000A00C3F30A510290401A019040286BDA78
:10034000C3F3130040F4801B0098924620B10023B1
:10035000D2EB030A63EB0B0B01985946C0F1400244
:10036000504600F020FA06460D4650465946019A7E
:1003700000F028FA10EB08006141002487EA1152CE
:1003800084EAE7731A4340D0009A62B3019A012AC3
:100390004FEA075215DC001B61EB02014FF00042EF
:1003A00002EA0752CDE90042001C41F580113246B5
:1003B0002B4600F05FFA03B0BDE8F08F40462146BF
:1003C000F9E7001B61EB0201001C41F580130018E6
:1003D0005B412018A2F5001747EB030140EAD570F6
:1003E000B6196D4111E06D084FEA360645EAC07551
:1003F0004FEA0752001B61EB0201001C41F580111E
:1004000049084FEA30000019514132462B4603B0EB
:10041000BDE8F04F00F01FBA009801224000002311
:10042000D0EB020263EBE073009821464FEAE074E0
:10043000B8EB000061EB0401E9E783F000435BE700
:1004400081F0004158E72DE9FE4F81EA030404F0F2
:10045000004421F0004100944FF0000B23F00043D2
:1004600050EA01045ED052EA03045BD0C3F30A549D
:10047000C1F30A552C44A4F2F3340194A0FB0254B6
:10048000C1F3130141F48011C3F3130343F4801348
:1004900001FB024400FB034E840A970A44EA81549C
:1004A00047EA8357A4FB076802958D0A05FB078579
:1004B0004FEA932C04FB0C542705029D4FEA065883
:1004C00047EA1637B5EB08056EEB070C870E920E60
:1004D00047EA811742EA8312A7FB0201B6EB0B0140
:1004E00064EB00042B0D43EA0C335E1844EB1C5004
:1004F000DA465146E7FB0201C5F313044FEA0B331A
:1005000043EA14534FEA0432019C43EA0603A4F180
:100510000C040294009CCDE900B400F0ABF903B0E8
:10052000BDE8F08F00200146F9E72DE9F04D81EAA2
:10053000030404F0004B21F0004514464FF0000A7C
:1005400023F0004150EA050220D054EA01021DD0F8
:10055000C5F30A570246C5F31303C1F31300C1F3F1
:100560000A5640F4801543F48013A7EB0608101BCD
:10057000D64608F2FD3873EB050002D308F10108F6
:1005800001E092185B41B8F1000F03DA0020014648
:10059000BDE8F08D00204FF48011064684460EE041
:1005A000171B73EB050705D3121B63EB050306430B
:1005B0004CEA010C49084FEA300092185B4150EABE
:1005C0000107EDD152EA030012D082EA040083EA67
:1005D0000501084305D0101BAB4106D201220023C0
:1005E00006E000224FF0004302E06FF001025310DA
:1005F0001AEB06004CEB085110EB0A0041EB0B0123
:10060000BDE8F04D00F027B9C10F80EAE070084462
:10061000CA079623002100F0F0B896230022114665
:1006200000F0EBB80EB5C10F80EAE0700844CA07CD
:10063000002140F233438DE80E000A460B4600F0DD
:1006400019F903B000BD0EB540F23341029100210B
:10065000CDE900110A460B4600F00CF903B000BDCD
:1006600000F0004220F00040C10DC0F3160040F43D
:1006700000007F2901DA00207047962903DCC1F1D0
:100680009601C84001E096398840002AF4D04042E3
:10069000704700F0004230F000400AD0C10D01F573
:1006A0006071C0F3160042EA0151C20840071143CD
:1006B000704700200146704701F0004330B421F03C
:1006C000004150EA010206D00A0DA2F56072C1F3A2
:1006D0001301002A02DC30BC00207047440F44EABA
:1006E000C104C100E01830BC00EBC25000F07CB87F
:1006F000002801DBC0F10040002901DBC1F100410D
:1007000081427047002801DBC0F10040002901DB75
:10071000C1F100418842704730B50B4601460020C8
:100720002022012409E021FA02F59D4205D303FAB3
:1007300002F5491B04FA02F52844151EA2F1010234
:10074000F1DC30BD2DE9F05F0546002092469B4666
:1007500088460646814640241BE0284641464746D7
:100760002246FFF7DFFC53465A46C01A914110D388
:1007700011461846224600F016F82D1A67EB0108BC
:100780004F4622460120002100F00DF817EB00092A
:100790004E41201EA4F10104DFDC484631462A46C2
:1007A0004346BDE8F09F202A04DB203A00FA02F11C
:1007B000002070479140C2F1200320FA03F319434F
:1007C00090407047202A06DBCB17203A41FA02F00E
:1007D00043EAE07306E041FA02F3D040C2F120029E
:1007E00091400843194670470029A8BF7047401C34
:1007F000490008BF20F00100704710B4B0FA80FC37
:1008000000FA0CF050EA010404BF10BC704749B173
:10081000CCF1200421FA04F411FA0CF118BF0121E3
:1008200021430843A3EB0C01CB1D4FEA00614FEAC3
:10083000102042BF002010BC704700EBC350104492
:100840000029A4BF10BC7047401C490008BF20F01D
:10085000010010BC704710B5141E73F1000408DAD3
:10086000401C41F1000192185B411A4301D120F074
:10087000010010BD2DE9F04D92469B4611B1B1FA31
:1008800081F202E0B0FA80F220329046FFF78BFF4F
:1008900004460F4640EA0A0041EA0B0153465A4615
:1008A000084313D0114653EA010019D0C8F14002A1
:1008B0005046FFF737FC05460E465046594642461D
:1008C000FFF771FF084305D0012004E020463946B8
:1008D000BDE8F08D0020054346EAE0762C4337431F
:1008E0000A986305E40AA0EB08000022FD0A44EA26
:1008F00047540A3002D500200146E9E701051019E6
:100900006941DDE9084500196941BDE8F04DA2E7FC
:10091000C1F30A52C1F3130140F2FF3341F48011D5
:100920009A4202DA00200146704740F233439A426D
:10093000A2F2334202DC5242FFF7F4BBFFF733BFAF
:1009400030B5041E71F1000404DB4FF00044404256
:1009500064EB0101141E73F1000405DB1C464FF02B
:100960000043524263EB0403994208BF904230BDFA
:10097000064C074D06E0E06840F0010394E80700EC
:1009800098471034AC42F6D3FFF7B4FBF45000089C
:1009900014510008FEE700002DE9F0472A4F78685F
:1009A000FFF732FE294E04467068FFF72DFE284DF2
:1009B00001462246286803F00FF9B868FFF724FEC5
:1009C0000446B068FFF720FE224E014622463068FA
:1009D00003F002F9204C6068FFF716FE81461F48BD
:1009E0000068FFF711FE1E4F80463868B0F9180006
:1009F000FFF70AFE2968C969FFF70EFC4146FFF7B9
:100A0000B3FB014617484A46006803F0E5F8A068C2
:100A1000FFF7FAFD054614480068FFF7F5FD0446A8
:100A20003868B0F91A00FFF7EFFD3168C969FFF7C0
:100A3000F3FB2146FFF798FB01460C482A46006865
:100A4000BDE8F04703F0C8B804050020F00400201A
:100A5000800000207C0000201805002004000020F9
:100A6000600000208C000020100000208800002082
:100A70002DE9F84FDFF89C840025012498F8000048
:100A80002E462F46AB46A8F57E79242874D1C9F8A6
:100A900078B0C9F87CB06FF02F0AC9F880B0C7E110
:100AA0002C2801D1641C6D1C27BB0846095D522906
:100AB00012D0502914D0442916D04A2923D04129D4
:100AC00029D0312936D0322938D034293AD0432997
:100AD0003CD0532940D046E0522189F80A1042E028
:100AE000502189F80B103EE020444078442802D081
:100AF000462804D037E0442189F80E1033E046211F
:100B000089F80F102FE0204440785A282BD14A2131
:100B100089F8101027E020444078432802D0532859
:100B200004D020E0432189F811101CE0532189F8FA
:100B3000121018E0312189F8131014E0322189F8DD
:100B4000141010E0342189F815100CE0204440788E
:100B5000502808D1432004E020444078502802D196
:100B6000532089F8F40399F80A00012752284DD13F
:100B7000A81E05284AD200E065E1DFE800F0031472
:100B80002536410018F804003038FFF73DFD00908D
:100B9000E148E2490068FFF73FFB0099FFF7E4FAFC
:100BA000DD49086032E018F804003038FFF72CFD0A
:100BB0000090D948D9494068FFF72EFB0099FFF70C
:100BC000D3FAD549486021E018F804003038FFF71F
:100BD0001BFD0090D048D1498068FFF71DFB0099AC
:100BE000FFF7C2FACC49886010E0CB4818F804201F
:100BF0009438816801EB81030AEB4301114404E05E
:100C0000C54818F8041084383039816099F80B0011
:100C1000502851D1A81E05284ED2DFE800F0031657
:100C2000293C470018F804003038FFF7EDFC00902D
:100C3000B948BA4910300068FFF7EEFA0099FFF79B
:100C400093FAB5491031086036E018F804003038DE
:100C5000FFF7DAFC0090B048B04910304068FFF769
:100C6000DBFA0099FFF780FAAB491031486023E0C6
:100C700018F804003038FFF7C7FC0090A648A749D1
:100C800010308068FFF7C8FA0099FFF76DFAA249A3
:100C90001031886010E0A04818F8042094384168AA
:100CA00001EB81030AEB4301114404E09A4818F870
:100CB000041084383039416099F80F1048464629AD
:100CC00003D0C17C312912D044E0954B08EB0401DC
:100CD0001A68C87802EB82040AEB440420440979BC
:100CE00000EB80000AEB400008441860A6E0022DEB
:100CF00006D0032D10D0042D1AD0052D2AD123E0C3
:100D0000854918F8043064398A6902EB820C0AEBD1
:100D10004C021A448A611DE07F4918F80430643996
:100D2000CA6902EB820C0AEB4C021A44CA6111E058
:100D3000794918F8043064390A6A02EB820C0AEB2C
:100D40004C021A440A6205E0734A18F80410783A13
:100D500030395160017D322932D1022D06D0032D68
:100D600010D0042D1AD0052D2AD123E06A4918F895
:100D700004306439CA6A02EB820C0AEB4C021A4452
:100D8000CA621DE0644918F8043064390A6B02EB4A
:100D9000820C0AEB4C021A440A6311E05E4918F80F
:100DA000042064394B6B03EB83030AEB43031A44BF
:100DB0004A6305E0584A18F80410783A30399160CF
:100DC00099F81500342832D1022D06D0032D10D009
:100DD000042D1AD0052D2AD123E04F4818F80430ED
:100DE0006438416D01EB81020AEB4201194441650F
:100DF0001DE0494818F804306438816D01EB810228
:100E00000AEB42011944816511E0434818F80420B7
:100E10006438C16D01EB81030AEB43011144C165E4
:100E200005E03D4918F80400783930380861641C41
:100E3000414618F8040023287FF432AE4FF47A714B
:100E40003448FFF786F918F80610761C4046262924
:100E500005D0BDE8F84F30482A3002F03BBB30499E
:100E60000124091DC9F878B00C604C602A4C00229E
:100E7000A03C4B46C4F800B0C4F804B0571E254649
:100E8000C4F808B03AE02C2C01D1521C761C012A7F
:100E900006D0022A0AD0032A1AD0042A2DD11DE036
:100EA000845D522C29D172241C7326E0845D2D2C84
:100EB0000CD0D1F800C0303C04FB0CF4D5F800C0D5
:100EC0000CEB8C0C04EB4C042C6016E00F6014E06F
:100ED000845D502C11D170245C730EE0845D2D2C48
:100EE00015D0D1F804C0303C04FB0CF4D5F804C094
:100EF0000CEB8C0C04EB4C046C60761C845D232C96
:100F0000C1D14FF47A710348FFF723F9A1E74F608D
:100F1000F3E70000380A00202006002000002041EE
:100F2000640000202DE9F0475D4CDDF820905D4D18
:100F3000206888464FF47A764089E0BB012000F0B3
:100F4000D7FB2068B5F95E20B0F90E10B0F910009B
:100F50005143B5F960204C3500FB021101EB08004C
:100F600002F098FF2068B5F91230B0F90E20B0F900
:100F7000100002FB0391B5F9142000FB121002F0DF
:100F8000A7FF012000F0B4FB35F94C09B0421CDA90
:100F90002068B0F91200FFF737FB2968FFF73CF92A
:100FA000FFF75EFB02F08CFF012000F0A1FB206840
:100FB000B0F9120000E008E0FFF726FB6968FFF7D0
:100FC0002BF9FFF74DFB02F099FF206841890129B9
:100FD00063D1B5F94C10B14216DAB0F91200FFF73F
:100FE00013FB2968FFF718F9FFF73AFB02F068FFD7
:100FF0002068B0F91200FFF707FB6968FFF70CF9EA
:10100000FFF72EFB02F07AFFFFF7C6FC2668B6F961
:101010003800FFF7F9FA244F3968C969FFF7FCF87F
:1010200005464046FFF7F0FA8046B6F93600FFF76E
:10103000EBFA1E4E3168C969FFF7EEF84146FFF73B
:1010400093F82946FFF7E2F8FFF70AFB02F022FFC8
:10105000012000F04DFB2568B5F93800FFF7D4FA00
:101060003968C969FFF7D8F804464846FFF7CCFA53
:101070000746B5F93600FFF7C7FA3168C969FFF7C7
:10108000CBF83946FFF770F82146FFF76DF8FFF708
:10109000E7FABDE8F04702F01BBFBDE8F0870000AB
:1010A00060000020D4030020880000208C00002075
:1010B000014800F00DBA000090030020014800F044
:1010C00007BA00004C030020014800F001BA0000FC
:1010D000C4020020014800F0FBB90000800200209B
:1010E000014800F0F5B900000803002030B590F881
:1010F00040500124AC40C56B6C6004686360436879
:10110000102B036803D099600068C26030BD9A60FC
:101110000068C16030BD00000FB4642110B503AB9E
:101120000648029A03F042FA044982B201F1EC0047
:1011300001F0D2FB10BC5DF814FB00005001002050
:101140007047000072B602A003F020FAFBE700002F
:101150004552524F520000002DE9F04F97488BB096
:10116000984DD0F800809648DFF85CA2B8F9486046
:1011700041680791DFF8549200684FF47A7B06903B
:10118000F6BB002442E07888642140BAB0FBF1F15C
:1011900007980844FFF738FACAF800000390B888A7
:1011A000642140BAB0FBF1F0FFF737FA88490860D4
:1011B00004903888642140BAB0FBF1F106980844E5
:1011C000FFF722FA834FC9F80000B84204DD8249D4
:1011D000FFF71CF8C9F80000D9F8001081F00041B1
:1011E000C9F800100398B84204DD7B49FFF70EF8F8
:1011F000CAF800000499764AB94207DD764900E052
:101200000EE017460498FFF701F83860285D641C6B
:10121000AA2805D12F19B879552801D15C45B2DB30
:10122000012E7DD1002497E0285D5A2879D12046EF
:1012300007E0295C5A2903D1291849785A2902D094
:10124000401C0F28F5DB2F1937F8030F40BAFFF7C2
:10125000FAF9624A624BFFF768F9FFF72DFA614E1F
:10126000706003900290788840BAFFF7ECF95B4A0F
:101270005B4BFFF75AF9FFF71FFAB0600590B8888B
:10128000FF1E40BAFFF7DFF9544A554BFFF74DF9FF
:10129000FFF712FAF060064653490298884205DDCE
:1012A00052490398FEF7B2FF4E4948604E480599EF
:1012B000814205DD4D490598FEF7A8FF4949886040
:1012C00049498E4205DD49493046FEF79FFF4549B1
:1012D000C86037F8090F642640BAB0FBF6F0FFF794
:1012E0009CF9C9F8000002900190788840BAB0FBE0
:1012F000F6F0FFF792F9CAF800000390B88840BAF8
:10130000B0FBF6F0FFF789F931490646314F086026
:101310000198B84208DD30490298FEF777FF01E0F6
:1013200021E019E0C9F80000D9F8001081F000416F
:10133000C9F80010039ABA4205DD27491046FEF7A6
:1013400065FFCAF80000224ABE4205DD2249174661
:101350003046FEF75BFF3860285D641C5A2802D1D6
:101360005C45FFF661AF0698FFF74EF94C46D9F899
:101370000010FEF7F9FE074620600798FFF744F9D2
:101380005546DAF80010FEF7EFFE2860154EB8F863
:101390000810143E012904D1C6E900070021A8F86D
:1013A00008103168FEF732FF286038467168FEF792
:1013B0002DFF20600BB0BDE8F08F00006000002022
:1013C00080050020200E0020400000204400002066
:1013D000480000200000344300C023441904560E86
:1013E0002D6230401C1200200000FA4400007A45B3
:1013F00010B590F821100022022905D00421816344
:1014000080F82020012010BD01680B6823F00E0336
:101410000B6001680B6823F001030B6090F840300B
:10142000C46B012101FA03F3636080F8211080F896
:101430002020104610BD000010B590F821100024A7
:10144000022903D00421816301243DE001680A6878
:1014500022F00E020A6001680A6822F001020A60A6
:101460001A4A0168914201D1012121E0174A143240
:10147000914201D110211BE0144A2832914201D13E
:10148000891515E0114A3C32914201D189140FE0CF
:101490000E4A5032914202D14FF4803108E00B4A9B
:1014A0006432914202D14FF4801101E04FF080711B
:1014B000064A083A5160012180F82110002180F885
:1014C0002010416B01B18847204610BD0800024042
:1014D0002DE9F05FC16B0C6801680B68D0F840C063
:1014E000042202FA0CF2494DDFF824A1494E4A4F7A
:1014F000DFF828B1DFF828E122422CD05A072AD59C
:101500000A68920603D40A6822F004020A6001689D
:10151000A94201D1042219E0514501D1402215E030
:10152000B14202D14FF4806210E0B94202D14FF4CF
:1015300080420BE0594502D14FF4802206E071450C
:1015400002D14FF4800201E04FF080622F49083948
:101550004A60C16A3BE04FF0020808FA0CF818EA4A
:10156000040F4FF000094FF0010235D05FEA837895
:1015700032D50B689B0605D40B6823F00A030B6079
:1015800080F821200168A94201D1022219E05145C9
:1015900001D1202215E0B14202D14FF4007210E0D7
:1015A000B94202D14FF400520BE0594502D14FF439
:1015B000003206E0714502D14FF4001201E04FF015
:1015C0000072124908394A6080F82090816A002927
:1015D0001AD0BDE8F05F0847082505FA0CF525424A
:1015E00012D01B0710D50B6823F00E030B6090F888
:1015F0004010C36B02FA01F15960826380F8212028
:1016000080F82090016BE2E7BDE8F09F08000240FF
:101610001C000240300002404400024058000240DA
:101620006C00024030B528B308C81349142219448D
:10163000B1FBF2F18900C163104981630221417756
:101640001A6843F6F0718A43D0E900142143D0E9C7
:1016500002452C43214304692143446921438469A1
:101660002143114319600021416301224277017730
:10167000084630BD012030BDF8FFFDBF000002402C
:1016800070B5044690F82000002501280CD00120F8
:1016900084F8200094F821600020012E06D084F800
:1016A00020000225284670BD022070BD022684F865
:1016B0002160A0632068066826F0010606602046C7
:1016C000FFF714FDE06A00282068016802D041F0AD
:1016D0000E0106E021F0040101602068016841F07C
:1016E0000A0101602068016841F001010160D9E749
:1016F00070B5044600F004F90546601C02D00448A9
:101700000078044400F0FCF8401BA042FAD370BDFE
:101710004C0000202DE9F84FDFF8B891002409F1C2
:10172000040A0AF1040B23460F270BF1040EC9E04B
:101730000125A5402A40AA427DD1674ED1F804C0B8
:10174000ACEB0608B44532D014DCBCF1030F3AD040
:1017500009DCBCF1000F2AD0BCF1010F1CD0BCF198
:10176000020F31D11DE0BCF1110F17D0BCF1120FE7
:101770002AD119E0B8F5881F19D006DCB8F5803FEA
:1017800015D0B8F5801F1FD111E0B8F5001F0ED09D
:10179000B8F5041F18D10AE0CB6815E0CB681B1D13
:1017A00012E0CB6808330FE0CB680C330CE08B6899
:1017B0002BB1012B4FF0080303D0456104E0042353
:1017C00002E0056100E00023FF2A01D8064601E09F
:1017D00000F104064FEA840501D9A5F12005D6F8E9
:1017E000008007FA05FC28EA0C0803FA05F548EA28
:1017F0000508C6F800804D68ED0062D5374DAE692A
:1018000046F00106AE61AD6924F0030605F001055E
:101810000095334D06EB050CDCF80850A607360F93
:1018200007FA06F825EA0805DFF8B880404503D135
:101830004FF0000817E044E0DFF8AC80404502D1EB
:101840004FF001080FE0DFF8A480404502D14FF0CF
:10185000020808E0DFF89880404502D14FF0030805
:1018600001E04FF0040808FA06F848EA0508CCF849
:1018700008804D68D9F80060ED034D4601D5164348
:1018800000E096432E604D68DAF80060AD035546DF
:1018900001D5164300E096432E604D68DBF80060EA
:1018A000ED025D4601D5164300E096432E604D687B
:1018B000DEF80060AD02754601D5164300E09643A0
:1018C0002E60641C0D682A46E5407FF431AFBDE808
:1018D000F88F0000000401400000111000100240C9
:1018E0000000014000080140000C014000100140D0
:1018F000001401400AB1016170470904FBE70000D0
:1019000001488068704700004C0000200248816850
:1019100002781144816070474C000020074810B5E0
:10192000016841F010010160032000F07DF8002003
:1019300000F006F800F024F8002010BD002002405E
:1019400070B50D4D04464FF47A712878B1FBF0F074
:101950000A490968B1FBF0F000F004FB48B9102C0B
:1019600007D200222146501E00F03EF800206C6095
:1019700070BD012070BD00004C0000205800002008
:10198000104808B5816941F001018161816901F068
:1019900001010091C16941F08051C161C06900221B
:1019A00000F0805000901146012000F01DF8012049
:1019B00000F00CF80448416821F0E06141F000714A
:1019C000416008BD0010024000000140002809DB12
:1019D00000F01F02012191404009800000F1E02049
:1019E000C0F8001170470000F0B40E4B1B680C46A5
:1019F000C3F30223C3F10705042D00D90425191DE3
:101A0000072901D2002300E0DB1E012606FA05F1BA
:101A1000491E214099409E40761E16403143F0BC3D
:101A200002F0DABD0CED00E0064900F0070208689C
:101A30004FF6FF03184040EA0220034A10430860B3
:101A4000704700000CED00E00000FA057047000050
:101A500010B5054C2068C00304D5FFF7F7FF4FF41D
:101A60008030206010BD0000140401402DE9F047D3
:101A70000F46050061D0434E306800F00700B842C1
:101A800009D2306820F0070038433060306800F039
:101A90000700B84251D128683B4C810712D5400756
:101AA00003D5606840F4E06060602878000703D5E3
:101AB000606840F4605060606068A96820F0F000E1
:101AC000084360602878C00728D06868012810D0D3
:101AD0002168022810D0890700292EDA616821F0D8
:101AE000030101436160FFF70BFF804641F2883933
:101AF0000DE021688903EFE78901EDE7FFF700FFBB
:101B0000A0EB0801494502D90320BDE8F0876068D1
:101B1000696800F00C00B0EB810FEFD1306800F085
:101B20000700B8420BD9306820F007003843306016
:101B3000306800F00700B84201D00120E5E72878BE
:101B4000400705D56068E96820F4E06008436060FC
:101B50002878000706D56068296920F4605040EABB
:101B6000C100606000F038F86168084AC1F30311F1
:101B7000515CC8400649086006480068FFF7E0FE6F
:101B80000020C2E70020024000100240DC500008A4
:101B900058000020500000200448054900684968AA
:101BA000044AC1F30221515CC8407047580000202C
:101BB00000100240EC5000080448054900684968DC
:101BC000044AC1F3C221515CC8407047580000204C
:101BD00000100240EC50000812A185B00FC98DE83A
:101BE0000F0014A0144A006804905168134801F0D3
:101BF0000C03042B10D0082B0ED1C1F38343C9036F
:101C00001DF803000AD5516804AAC1F34041515C94
:101C10000A4A5043B0FBF1F005B070470849484309
:101C2000FAE7000002030405060708090A0B0C0D79
:101C30000E0F1010010200000010024000127A0086
:101C400000093D002DE9F84F040070D02078C04D08
:101C5000C00749D06868C0F38100012807D06868D0
:101C6000C0F38100022809D16868C00306D528683E
:101C7000800339D560680028E7D035E06068B0F5AA
:101C8000803F0BD010B1B0F5A02F11D0286820F400
:101C900080302860286820F4802002E0286840F422
:101CA00080302860606890B1FFF72AFE06460AE09F
:101CB000286840F480202860F0E700BFFFF720FE8E
:101CC000801B642873D828688003F7D50CE0FFF7E1
:101CD00017FE064605E000BFFFF712FE801B6428D2
:101CE000F0D828688003F7D420789A4E80074FF008
:101CF00001094FF0000839D5686810F00C0F07D0C3
:101D00006868C0F38100022809D16868C00306D45E
:101D10002868800714D52069012808D110E02069BF
:101D2000B0B1C6F80090FFF7EBFD074605E00AE109
:101D3000FFF7E6FDC01B0228C4D828688007F7D546
:101D40002868616920F0F80040EAC10028600DE0D1
:101D5000C6F80080FFF7D4FD074604E0FFF7D0FD8A
:101D6000C01B022823D828688007F7D420780007F2
:101D70002CD57948A169D9B1C0F80090FFF7C0FD12
:101D8000074604E0FFF7BCFDC01B02280FD8686AB5
:101D90008007F7D571484FF4FA510068B0FBF1F0B5
:101DA000009000BF0098411E0091FAD20EE080E042
:101DB000C0F80080FFF7A4FD074604E0FFF7A0FD90
:101DC000C01B022875D8686A8007F7D420784007BE
:101DD00060D5E8690027C00008D4E86940F0805069
:101DE000E861E869012700F0805000905C480168D4
:101DF000C90513D40168834641F480710160FFF77F
:101E00007FFD824606E000BFFFF77AFDA0EB0A00E7
:101E100064284ED8DBF80000C005F5D5E06801283D
:101E20000AD008B1052813D0286A20F001002862E2
:101E3000286A20F0040002E0286A40F001002862CD
:101E4000E06841F2883B98B1FFF75AFD82460BE00B
:101E5000286A40F004002862EEE700BFFFF750FD5B
:101E6000A0EB0A0159455AD8286A8007F6D50CE03C
:101E7000FFF746FD824605E0FFF742FDA0EB0A01B1
:101E800059454CD8286A8007F6D41FB1E86920F07C
:101E90008050E861E06988B36968C1F38101022973
:101EA00044D00228C6F8608004D0FFF729FD04461C
:101EB00038E034E0FFF724FD074604E0FFF720FD9B
:101EC000C01B02282BD828688001F7D4206AB0F5FF
:101ED000803F05D16868A16820F40030084368603D
:101EE000D4E908010843696821F474110843686063
:101EF000C6F86090FFF704FD044606E025E000BF49
:101F0000FFF7FEFC001B022809D828688001F7D5DE
:101F10001BE000BFFFF7F4FC001B022802D90320DE
:101F2000BDE8F88F28688001F4D40EE00128F7D0CE
:101F30006868226A00F48031914204D1616A00F439
:101F40007010884201D00120EAE70020E8E7000095
:101F5000001002400000424280044242580000202B
:101F60000070004010B5401EB0F1807F01D3012009
:101F700010BD4FF0E02460610F21601702F02CFBD0
:101F80000020A06107202061002010BD70B590F8EE
:101F90003C20012A26D0012480F83C40022280F80F
:101FA0003D2003685A689D6822F070060A68324333
:101FB0005A600D4B02689A4208D0B2F1804F05D0AA
:101FC0000A4B9A4202D00A4B9A4204D1496825F042
:101FD00080031943916080F83D40002180F83C1057
:101FE000084670BD022070BD002C01400004004076
:101FF0000008004010B586B00021009101910291C7
:1020000003911A4C03681A4902221A48A34219D1B3
:102010008B6943F008038B618969039201F0080121
:1020200004913321CDE900126946FFF773FB124892
:10203000416821F4406141F0E06141F40061416098
:1020400006B010BD0D4CA342FAD18B6943F00803D2
:102050008B618969039201F0080104914FF470715A
:10206000CDE900126946FFF755FBE9E7000400409F
:1020700000100240000C0140000001400008004038
:1020800070B5044690F83C000D4601280AD00120A6
:1020900084F83C0042B1042A18D0082A2AD00C2A1D
:1020A0004DD139E0022070BD206801F0A3FF206807
:1020B000816941F0080181612068816921F0040192
:1020C0008161206881692A69114311E0206801F06B
:1020D000B9FF2068816941F40061816120688169EC
:1020E00021F480618161206881692A6941EA0221C5
:1020F000816124E0206801F0D1FF2068C16941F0CE
:102100000801C1612068C16921F00401C161206832
:10211000C1692A69114311E0206801F0EBFF2068D2
:10212000C16941F40061C1612068C16921F4806125
:10213000C1612068C1692A6941EA0221C1610020A8
:1021400084F83C0070BD10B5040003D094F83D0045
:1021500010B107E0012010BD002084F83C002046AB
:1021600000F01EF8022084F83D00211D206801F0D7
:10217000FDFE012084F8460084F83E0084F83F000C
:1021800084F8400084F8410084F8420084F8430059
:1021900084F8440084F8450084F83D00002010BD18
:1021A00008B50C4A01680C48914207D1C16941F059
:1021B0000201C161C06900F0020009E0074A9142D2
:1021C00007D1C16941F00401C161C06900F0040098
:1021D000009008BD000400400010024000080040CC
:1021E00010B50446022249B104290ED0082913D0A3
:1021F00094F84100012816D0012010BD94F83E004B
:102200000128F9D184F83E200FE094F83F0001281E
:10221000F2D184F83F2008E094F840000128EBD187
:1022200084F8402001E084F841200122206801F078
:10223000D3FE0F492068884203D1426C42F4004229
:1022400042642068884208D0B0F1804F05D0094927
:10225000884202D00849884204D1816801F0070110
:10226000062903D0016841F001010160002010BD82
:10227000002C01400004004000080040704710B5E9
:1022800004460068416994F83D20C1F3C011212A39
:102290000BD151B1416921F080014161606B08B1FE
:1022A000FFF7A6F8204601F0E2FF2068416994F8A4
:1022B0003E20C1F38011222A0BD151B1416921F096
:1022C00040014161A06B08B1FFF792F8204601F090
:1022D000B6FF002010BD7047F8B5026804461068CC
:1022E000D168536910F00F0F4FF0000553D003F081
:1022F000010601F4907737435FD0C20705D0CA05C5
:1023000003D5226C42F001022264420705D5DA07A8
:1023100003D0226C42F002022264820705D5DA075C
:1023200003D0226C42F004022264020707D501F0B8
:102330002002324303D0226C42F008022264226C55
:10234000002A34D0800604D5880602D5204601F044
:1023500097FF20684069216CC0F38010090700D402
:1023600030B3204601F06BFF2068416949061BD558
:10237000416921F040014161A06BA8B15849416316
:10238000A06BFFF759F8002811D0A06B416B01B08A
:10239000BDE8F040084783060FD58B060DD52046D3
:1023A000BDE8F84001F06CBF2046FFF794FFF8BD90
:1023B0002046FFF790FF2564F8BD266B2023012EF1
:1023C00052D1C60650D5CE064ED510685068009042
:1023D000506940062AD5A16B086840680004000CCB
:1023E000EAD0A68D8642E7D9E0858869202818D0F2
:1023F000D06820F48070D0602068416921F001012C
:1024000041612068416921F04001416184F83E301A
:1024100025632068C16821F01001C160A06BFEF740
:10242000E7FFA08DE18D401A81B219E0A08DE18D0A
:10243000401A81B2E08D0028BED00029BCD0D068FF
:1024400020F49070D0602068426922F0010242615D
:1024500084F83E3025632068C26822F01002C26012
:102460002046FFF70BFFF8BD05062BD50D0629D535
:1024700094F83D002128F6D1A068B0F5805F01D125
:102480002069B0B1206A411C21622168007848604F
:10249000E08C401E0004000CE084E4D12068C16898
:1024A00021F08001C1602068C16841F04001C16035
:1024B000F8BD206A0088C0F308005060206A801CC4
:1024C0002062E5E74006F3D54806F1D5D1682046FD
:1024D00021F04001D16084F83D3000F03DFAF8BDB4
:1024E0003941000870B5040004D094F83D0000257F
:1024F00010B106E0012070BD84F83C50204600F089
:1025000023F8242084F83D002068C16821F400519C
:10251000C160204601F010FF2068016921F490415C
:1025200001612068416921F02A0141612068C16888
:1025300041F40051C1602564202084F83D0084F8F6
:102540003E00002070BD00002DE9F04786B0002558
:1025500000950195029503950446D0F800C08C487B
:10256000DFF82882022103228A4B871480264FF449
:1025700080694FF0100AC44559D1D0F818C04CF406
:10258000804CC0F818C0D0F818C00CF4804CCDF8BE
:1025900010C0D0F818C04CF0040CC0F818C0806906
:1025A000039200F0040004900802CDE9000169469E
:1025B00098461846FFF7AEF8CDE9009569464046C3
:1025C0000295FFF7A7F8DFF8D48173494046C0E9C8
:1025D0000015C0E90256C8F81050C8F81450C8E9F0
:1025E0000657FFF71FF808B1FEF7ACFD6B4FC4F8B4
:1025F00038804437C8F82440C7E9025666483D6130
:1026000014387D61C7E9000A4FF40050C7E906504D
:102610003846FFF707F808B1FEF794FD676300221C
:10262000114625207C62FFF7DFF925204AE0DFF81C
:102630007081C4454BD1D0F81CC04CF4003CC0F8AC
:102640001CC0D0F81CC00CF4003CCDF810C0D0F871
:1026500018C04CF0040CC0F818C08069039200F058
:10266000040004900420CDE900016946984618460C
:10267000FFF750F80820CDE900056946404602956D
:10268000FFF748F8DFF81481434908F1880840460D
:102690001431C0E90015C0E90256C8F81050C8F856
:1026A0001450C8E90657FEF7BDFF08B1FEF74AFD12
:1026B000C4F83880002211462620C8F82440FFF7CD
:1026C00093F92620FFF782F906B0BDE8F087354B75
:1026D0009C45F9D1C36943F48023C361C36903F402
:1026E00080230493836943F0080383618069CDE903
:1026F000009100F00800CDE90320DFF8AC806946C6
:102700004046FFF707F84FF40060CDE90005A94601
:10271000694640460295FEF7FDFFDFF880801E49BE
:1027200008F1CC0840462839C0E90015C0E9025636
:10273000C8F81050C8F814504FF44051C8E9065179
:10274000FEF770FF08B1FEF7FDFC1348174DC4F803
:1027500038803C38C8F82440C5E9000AC5E902962B
:10276000C5F81090C5F81490C5E906972846FEF7FD
:1027700059FF08B1FEF7E6FC6563002211462720E9
:102780006C62FFF731F927209CE700000038014018
:102790000010024000080140580002408002002062
:1027A0000044004000480040000C0140900300201D
:1027B00090F83E30202B0ED159B152B190F83C30F8
:1027C000012B08D0012380F83C300023036301F083
:1027D0000FBE012070470220704790F83E30202B3A
:1027E0000ED159B152B190F83C30012B08D00123E1
:1027F00080F83C300023036301F032BE01207047B3
:102800000220704710B501F06DFABDE810400122BA
:1028100001490248FFF7E1BFBE040020F801002093
:10282000704700002DE9F843044690F83D001F462C
:1028300016460D4620284CD1C5B1BEB194F83C00D7
:10284000012846D0012084F83C004FF00008C4F86D
:102850004080212084F83D00FFF752F8A68481468D
:10286000E684A068B0F5805F03D004E00120BDE8F5
:10287000F883206928B12E465FF0000584F83C807B
:102880000EE00026FAE78021204601F004FEA0B900
:10289000AEB116F8010B21684860E08C401EE08460
:1028A000E08C4B464FF0000200970028EBD14FF030
:1028B0004001204601F0EFFD30B10320D7E735F8A5
:1028C000020BC0F30800E6E7202084F83D0000205A
:1028D000CDE70220CBE7000070B5044690F83D003C
:1028E000202830D169B362B394F83C0001282AD083
:1028F000012084F83C002162A284E2840025256442
:10290000212084F83D00636B10489862636B104887
:10291000D862636B0F481863606B13464563266883
:10292000606B321DFEF7ACFE21686FF0400008605E
:1029300084F83C502068416941F0800141610020E9
:1029400070BD012070BD022070BD0000074200086C
:10295000354200084941000870477047FEE7000013
:1029600010B501224F495048FFF737FF01224F4968
:102970004F48FFF732FF4E480068C16841F0100130
:10298000C1604C480068C16841F01001C1604FF45B
:102990007A74224645494648FFF70AFF22464649CF
:1029A0004448FFF705FF00214448FFF719FC0421C4
:1029B0004248FFF715FC08214048FFF711FC0C21A5
:1029C0003E48FFF70DFC00213D48FFF709FC0421BC
:1029D0003B48FFF705FC08213948FFF701FC0C21B3
:1029E0003748FFF7FDFB38493648394A0860374910
:1029F000C0E900120021418101810121C1810182D0
:102A0000418281828A1E028342834284828481853C
:102A1000C18501864186C1860287A0F84020A0F8C2
:102A20004220A0F848102B482E4A304B81672A4894
:102A30002A49046040F20E6008602949600008607D
:102A400040F21A411160284A40F2DC51116040F214
:102A50009E721A60264A1460264A116026492B4A43
:102A6000086026494FF496600860254940F22260CC
:102A70000860244940F69800086023496FF02C0054
:102A800008602D211160224A10602248016022480E
:102A900040F6B831A0F8A610A0F89210A0F888105F
:102AA00010BD0000BE040020F8010020200E002010
:102AB000B40100203C020020380A0020C0000020A1
:102AC0000801002030050020600000209A999999A3
:102AD0009999C93F40060020000000200400002012
:102AE000080000200C00002010000020140000202E
:102AF000180000201C0000202000002024000020DE
:102B0000280000202C00002030000020340000208D
:102B1000380000203C000020D40300202DE9FF4FA6
:102B2000FF4C8DB00E46B4F93A90B4F9B880209FAE
:102B30001A9DC1451BDD0F98801BFDF765FD83467F
:102B4000B4F9AE00FDF760FD82464046FDF75CFD3E
:102B500080464846FDF758FD002352464146CDF8D1
:102B600000B002F003FAFDF77BFDA4F85E00B4F9B3
:102B70003AA0B4F9B8904FF00008CA451BDA0D9896
:102B8000801BFDF741FD04904846FDF73DFD83465F
:102B9000B4F9C200FDF738FD81465046FDF734FD1B
:102BA000CDF800805A464946049B02F0DFF9FDF754
:102BB00057FDA4F85E00B4F93CA0B4F9BA90CA4538
:102BC00019DD1B98401BFDF71FFD0090B4F9B00004
:102BD000FDF71AFD83464846FDF716FD814650462F
:102BE000FDF712FD00235A46494602F0BFF9FDF7F2
:102BF00037FDA4F86000B4F93CA0B4F9BA90CA4516
:102C00001BDA1098401BFDF7FFFC04904846FDF7C7
:102C1000FBFC8346B4F9C400FDF7F6FC8146504640
:102C2000FDF7F2FCCDF800805A464946049B02F0BD
:102C30009DF9FDF715FDA4F86000B4F940A0B4F9C2
:102C4000BE90CA451DDD2198C01BFDF7DDFC049038
:102C5000B4F9B400FDF7D8FC83464846FDF7D4FC30
:102C600081465046FDF7D0FC84460498009000232E
:102C70005A464946604602F079F9FDF7F1FCA4F89E
:102C80006400A146B4F940A0B4F9BE40A2451BDAE5
:102C90001F98C01BFDF7B8FC04902046FDF7B4FC5C
:102CA0008346B9F9C800FDF7AFFC04465046FDF76E
:102CB000ABFCCDF800805A462146049B02F056F941
:102CC000FDF7CEFCA9F86400DFF858A2DFF858B28F
:102CD000DFF85882DAF8004030460394FDF794FCA0
:102CE00006905C4525D22398FDF79CFC0022904B72
:102CF000FDF71BFC00228F4BFDF7FEFA00228E4BE6
:102D0000FDF7A1FBFDF7D8FC044606980190239837
:102D1000FDF77AFC0246009400215446019B03987B
:102D200002F024F9FDF79CFCC8F80400206858451F
:102D300021D3069C2298FDF775FC00227C4BFDF701
:102D4000F4FB00227B4BFDF7D7FA00227A4BFDF70C
:102D50007AFBFDF7B1FC03902298FDF755FC014684
:102D600000940022039BDAF8000002F0FFF8FDF760
:102D700077FCC8F80400DFF8C4A12846DAF8004060
:102D80000394FDF741FC05905C4525D22598FDF79D
:102D900049FC0022664BFDF7C8FB0022654BFDF79E
:102DA000ABFA0022644BFDF74EFBFDF785FC0446B1
:102DB000059802902598FDF727FC0246DDE90230D0
:102DC00000940021544602F0D1F8FDF749FCC8F800
:102DD00008002068584521D3059C2498FDF722FC63
:102DE0000022534BFDF7A1FB0022524BFDF784FA62
:102DF0000022514BFDF727FBFDF75EFC0290249863
:102E0000FDF702FC014600940022029BDAF8000064
:102E100002F0ACF8FDF724FCC8F80800484CDFF8D5
:102E200024816068824658451ED22398FDF7FAFB3C
:102E300000223F4BFDF779FB00223E4BFDF75CFA89
:102E400000223D4BFDF7FFFAFDF736FC0090069B94
:102E50003D4A0021504602F089F8FDF701FCC8F810
:102E60000400606858451ED3DDF818A02298FDF7CD
:102E7000D9FB00222E4BFDF758FB00222D4BFDF70E
:102E80003BFA00222C4BFDF7DEFAFDF715FC03465A
:102E9000CDF800A000222D49606802F067F8FDF728
:102EA000DFFBC8F80400A0684FF4000B82465845C9
:102EB0001EDA2598FDF7B6FB00221D4BFDF735FB0A
:102EC00000221C4BFDF718FA00221B4BFDF7BBFA42
:102ED000FDF7F2FB059B00901B4A0021504602F0D3
:102EE00045F8FDF7BDFBC8F80800A068584537DB7A
:102EF000DDF814A02498FDF795FB00220C4BFDF79C
:102F000014FB00220B4BFDF7F7F900220A4BFDF7EB
:102F10009AFAFDF7D1FB0346CDF800A0002217E096
:102F2000D403002040000020000080800405002021
:102F30000000224000002E400000594044000020C4
:102F40001C1200201805002000001643000016C3C4
:102F50009E49A06802F00AF8FDF782FBC8F8080055
:102F6000B9F93A10B9F9B800DFF86482994C814296
:102F70002BDA2398FDF756FB0022974BFDF7D5FA85
:102F80000022964BFDF7B8F90022954BFDF75BFA4E
:102F9000FDF792FB82460F98FDF736FB0390206801
:102FA000DDF818B0B0F94010B9F95E0001FB00601F
:102FB000FDF72AFB5B46CDF800A01946039A01F005
:102FC000D5FFFDF74DFBC8F80400B9F93A10B9F97F
:102FD000B80081422BDD2298FDF724FB00227E4BB6
:102FE000FDF7A3FA00227D4BFDF786F900227C4B0A
:102FF000FDF729FAFDF760FB8246DDF818B00D9861
:10300000FDF702FB02902068B0F94010B9F95E00AC
:1030100001FB0060FDF7F8FA53465A46CDF800B0C0
:10302000029901F0A3FFFDF71BFBC8F80400B9F9F2
:103030003C10B9F9BA0081422BDD2598FDF7F2FA70
:103040000022654BFDF771FA0022644BFDF754F93D
:103050000022634BFDF7F7F9FDF72EFB82461B9824
:10306000FDF7D2FA03902068DDF814B0B0F94210F1
:10307000B9F9600001FB0050FDF7C6FA5B46CDF8D8
:1030800000A01946039A01F071FFFDF7E9FAC8F8AC
:103090000800B9F93C10B9F9BA0081422BDA24983A
:1030A000FDF7C0FA00224C4BFDF73FFA00224B4BD4
:1030B000FDF722F900224A4BFDF7C5F9FDF7FCFAAE
:1030C0008246DDF814B01098FDF79EFA0290206851
:1030D000B0F94210B9F9600001FB0050FDF794FA15
:1030E00053465A46CDF800B0029901F03FFFFDF774
:1030F000B7FAC8F80800B9F94C104FF47A70C8460E
:10310000814214DC1E98FDF77FFA82461C98FDF779
:103110007BFA8146B8F93E00FDF776FA4B46314A14
:103120003149CDF800A001F021FFFDF799FAA8F888
:103130006200B8F96400FDF775FA039123680893FB
:103140008146D3E90023FDF77EF982468B46B8F924
:103150006200FDF767FA044652465B460191FDF7AF
:10316000CBF8FDF7A9FAC8F80000089B4846D3E958
:1031700000230399FDF767F902460B4620460199A3
:10318000FDF75BF9FDF798FA0DF18809C8F804001E
:1031900099E80F000DF1200989E80F00DDE91E21F3
:1031A0002198CDE90421CDE906701BAB93E8070017
:1031B00001AB009583E80700DDE90F2331460D9848
:1031C000FDF7B0FE11B0BDE8F08F0000000016C39F
:1031D000F0040020600000200000224000002E408B
:1031E000000059400080D44400009643194808B5B7
:1031F000416941F0010141614069002200F0010094
:10320000009011460C20FEF7EFFB0C20FEF7DEFBD2
:10321000002211460D20FEF7E7FB0D20FEF7D6FB3E
:10322000002211460E20FEF7DFFB0E20FEF7CEFB3C
:10323000002211460F20FEF7D7FB0F20FEF7C6FB3A
:10324000002211461020FEF7CFFBBDE808401020F9
:10325000FEF7BCBB0010024070B586B000241C48CD
:103260000094019402940394816941F010018161FA
:10327000816901F010010491816941F020018161AF
:10328000816901F020010491816941F004018161AB
:10329000816901F004010491816941F008018161B3
:1032A00080690C4E00F008004FF400550490002295
:1032B00029463046FEF71EFB01210095CDE9011499
:1032C000039169463046FEF725FA06B070BD00004E
:1032D000001002400010014010B58AB0002407948D
:1032E0001C2168460894FCF734FF234821490160FB
:1032F0004721C0E9011444F62061C0E9031480218C
:103300008161FEF720FF08B1FDF71CFF079407A9B4
:1033100019480894FEF73AFE08B1FDF713FF602044
:10332000CDE9000402940022694613480494FEF794
:10333000A7FE08B1FDF706FF042269460E48FEF716
:103340009FFE08B1FDF7FEFE082269460A48FEF717
:1033500097FE08B1FDF7F6FE0C2269460648FEF717
:103360008FFE08B1FDF7EEFE0348FEF743FE0AB0FC
:1033700010BD000000040040C000002010B58AB05D
:10338000002407941C2168460894FCF7E2FE2248BA
:10339000204901604721C0E9011444F62061C0E9D9
:1033A00003148461FEF7CFFE08B1FDF7CBFE07944E
:1033B00007A919480894FEF7E9FD08B1FDF7C2FE18
:1033C0006020CDE90004029400226946124804946A
:1033D000FEF756FE08B1FDF7B5FE042269460E4819
:1033E000FEF74EFE08B1FDF7ADFE082269460A4819
:1033F000FEF746FE08B1FDF7A5FE0C226946064819
:10340000FEF73EFE08B1FDF79DFE0348FEF7F2FD14
:103410000AB010BD00080040080100200C4810B59B
:103420000A4901604FF4E1314160002181600C22C2
:10343000C160C0E904128161C161FFF753F800283F
:1034400003D0BDE81040FDF77DBE10BD003801403F
:10345000B40100200E4810B50C4901600D494160CF
:103460004FF4805181604900C160C91001610C2195
:10347000416100218161C161FFF734F8002803D068
:10348000BDE81040FDF75EBE10BD000000440040E6
:10349000F8010020A08601000C4810B50A4901601F
:1034A0004FF4E1314160002181600C22C160C0E92C
:1034B00004128161C161FFF715F8002803D0BDE84F
:1034C0001040FDF73FBE10BD004800403C02002008
:1034D000FEE7FEE72DE9F04F05460078DFF8ECA3A4
:1034E000DFF8ECB3FB4C012789B04FF0FF385228CE
:1034F00074D1ABF1B400F84A806841421160F749D9
:1035000081460860ABF1A400214680680E6810B1C6
:10351000012803D003E0A6F81A8000E07783EC4886
:103520009BF8F41320385329826800924268019274
:10353000006802D0432927D04EE05146FCF79EFE9A
:10354000E7490860069051460198FCF797FEE54967
:103550000860019051460098FCF790FEE24908602F
:10356000FDF797F8CDE902010198FDF792F8CDE952
:1035700000010698FDF78DF80246B6F91A000B46D1
:10358000CDE90490D9A025E05146FCF777FEE0494B
:103590004860069051460198FCF770FEDC4988604F
:1035A000019051460098FCF769FED949C860FDF7C3
:1035B00070F8CDE902010198FDF76BF8CDE9000143
:1035C0000698FDF766F8B6F91A200B46CDE9049285
:1035D0000246D0A000F0DAFF00F0CAFA687850285E
:1035E0007DD1BB48D449B438466870420860D3489E
:1035F0000660B748A438406810B1012804D005E03F
:103600002168A1F8188001E020680783B0499BF881
:10361000F4031039532802D043282ED05EE08946A7
:1036200008685146FCF72AFEC549086005905146D6
:10363000D9F80400FCF722FEC24908600090514608
:10364000D9F80800FCF71AFEBF490860FDF721F819
:10365000824603910098FDF71CF800908946059872
:10366000FDF717F8024620680B46B0F91800CDE9BF
:103670000460CDE9019AB5A02EE089460868934917
:10368000FCF7FCFDDFF8E8A29049CAF804000590B9
:10369000D9F80400FCF7F2FDCAF8080000908B4945
:1036A000D9F80800FCF7EAFDCAF80C00FCF7F1FFB6
:1036B00081468A460098FCF7ECFFCDE900010598A9
:1036C000FCF7E7FF024620680B46B0F91800CDE989
:1036D000029ACDE90460A7A000F058FF00E001E0E5
:1036E00000F046FAA878AC4E722807D13068FCF793
:1036F000D0FF02460B46A9A000F048FFE878DFF8AB
:10370000A892702808D1D9F80000FCF7C2FF024641
:103710000B46A6A000F03AFF2879442819D1D9F821
:103720000000FCF7B6FF02460B46A4A000F02EFFF7
:103730003068FCF7AEFF02460B46A2A000F026FF61
:10374000A2480068FCF7A5FF02460B46A0A000F0C7
:103750001DFF687946280FD1A0480068FCF762FF7A
:1037600000229F4BFCF7E1FE22680B46C2E90001F4
:1037700002469CA000F00AFFA8794A2804D12068DC
:1037800007819BA000F002FFE8794FF00009432871
:1037900007D12068A0F84C70A0F84E9098A000F0D7
:1037A000F5FE287A532807D12068A0F84C90A0F89D
:1037B0004E7097A000F0EAFE454E687A843EA6F16E
:1037C000140A312814D19448B16901609348F26910
:1037D00002609348336A0360DAF8040060B120683D
:1037E000C7812068B0F90E0000908EA000F0CEFED8
:1037F000A87A322805D019E0D4F800C0ACF80E80C1
:10380000EFE78D48F16A01608C48326B02608C48AA
:10381000736B0360DAF8080060B1206807822068E3
:10382000B0F91000009087A000F0B0FEE87A3428CC
:1038300005D019E0D4F800C0ACF81080EFE7864856
:10384000716D01608548B26D02608548F36D03605B
:10385000DAF81000C8B3206887822068B0F9120037
:10386000009080A000F092FE5C49CBF87C90CBF8F1
:103870008090C1F8009016494846C0395C46C1F8AE
:103880000C90C1F81090C1F81490C1F81890C1F8CC
:103890001C90C1F82090C1F824908031C1F820908C
:1038A000C1E90990C862086348638863C86308482F
:1038B0001E210A30FCF74DFC054864218438FCF7D2
:1038C00048FCA76709B0BDE8F08FD5E00000C8420A
:1038D0004006002060000020380000203C0000204E
:1038E000B0000020B4000020B8000020524F4C4C23
:1038F0003A503A256620493A256620443A25662002
:10390000413A25642052453A25640D0A0000000022
:103910004413002043524F4C4C3A503A25662049FC
:103920003A256620443A256620413A2564205245CE
:103930003A25640D0A000000300000203400002009
:10394000A4000020A8000020AC00002050495443EF
:10395000483A503A256620493A256620443A256679
:1039600020413A25642052453A25640D0A000000A2
:10397000341300204350495443483A503A256620B6
:10398000493A256620443A256620413A256420526A
:10399000453A25640D0A000044000020726F6C6CEB
:1039A0003A252E31660D0A004000002070697463CC
:1039B000683A252E31660D0A00000000703A252E67
:1039C00031662000723A252E662000004800002053
:1039D000793A252E31660D0A20000000640000208F
:1039E000000059404469663A252E32660D0A0000EF
:1039F0004C4556454C4D4F44453D310D0A000000A5
:103A0000436F6E74726F6C6C65720D0A000000007B
:103A1000537572650D0A00000000002004000020AC
:103A200008000020434831256420256420256420B7
:103A300025640D0A000000000C000020100000208A
:103A4000140000204348322564202564202564208A
:103A500025640D0A0000000024000020280000203A
:103A60002C00002043483425642025642025642050
:103A700025640D0A000000002568A5F81480ECE616
:103A80002DE9FC41304C4FF07E510022C4E90A126E
:103A9000DFF8B8C0C4F818C0C4F81CC0C4E90C21D1
:103AA0002B4DA263C4F820C0C4F824C0E2632948A7
:103AB0006960C5E90220A5F11807A5F10C08C7F84F
:103AC00004C005F110062448C8F804C0C6E9010284
:103AD0002248F060C7F808C0A5F1F000C8F808C097
:103AE0002060243000F12403C4E901032433E3609F
:103AF0002433236124336361CDF800C01346CDF82D
:103B000004C000F02DF8D4E90801CDE9000154F813
:103B1000340B94E80E00343C00F022F8D8F804107E
:103B20007868CDE900012D1D206995E80E0000F0B0
:103B300017F8B8680090361D019096E80E00E0680E
:103B400000F00EF8BDE8FC817C0000200000FA4483
:103B500034130020CDCCCC3D5C8F823F9A99993EA6
:103B600030B5DDE903450562846180E80E0030BDB3
:103B70007CB5174CD4E90601CDE9000104F1280118
:103B800060680EC9FFF7ECFFD4E90801CDE9000138
:103B900054F8340B94E80E00343CFFF7E1FF0D4974
:103BA0000C4D0C3D49686868CDE9000105F11C0029
:103BB00090E80E002069FFF7D3FFA86800900190FD
:103BC00005F12C0090E80E00E068FFF7C9FF7CBD0E
:103BD0007C0000202813002070B504460B46C06806
:103BE00020612D4D11461846FCF710FBE060294678
:103BF00020F00040FCF786FD08D3E068294620F05D
:103C00000040FCF775FD01D80020E060D4E90361B5
:103C10003046FCF7FBFAA168FCF7FEFA0546304691
:103C20002168FCF7F9FA2946FCF79EFAE061304674
:103C30006168FCF7F1FA6169FCF796FA0146606188
:103C4000A06980F00040FCF75DFD03D8A06980F01A
:103C5000004107E0D4E90501FCF754FD01D8A16952
:103C600000E061696161E069FCF77EFA0146E061AC
:103C7000206A80F00040FCF745FD03D8206A80F000
:103C8000004007E0D4E90701FCF73CFD01D8206AB9
:103C900000E0E069E06170BD0000E040FDF7D8BEE3
:103CA000704700007CB509480068FCF7F2FC044648
:103CB00007480D460068FCF7ECFC02460B4605A0E1
:103CC000CDE90045FDF728FA7CBD00004400002046
:103CD000400000202A2C252E30662C252E30662C04
:103CE000230000002DE9F0410068624988427DD13F
:103CF000614800F119010378604802888B5412B9B9
:103D00000B780F2B72D1521C92B200240280192A18
:103D100000D904800A780F2A68D10288192A65D14F
:103D2000554B00221E3B8D5C9D548C54521C192A0D
:103D3000F9DB048050481E3801F036F94E48504DEA
:103D4000EA384FF47A72B0F94430012193422B687B
:103D500001DA5C8100E05981B0F942304FF44876D5
:103D6000B34202DA2B68198103E0B34201DD2B680C
:103D70001C81B0F9483040F21457BB4203DA2B687B
:103D8000A3F84A1002E02968A1F84A4029683D4B8F
:103D9000B1F84A70012F03D0B1F84C70012F2FD128
:103DA0009F6F6FB3A0F86220B0F984C0B0F93A7089
:103DB000BC4501DAA0F88470B0F988C0BC4501DDCB
:103DC000A0F88870B0F98EC0B0F93C70BC4501DA3B
:103DD000A0F88E70B0F992C0BC4501DDA0F89270D9
:103DE000B0F9A2C0B0F94070BC4500E03FE001DA94
:103DF000A0F8A270B0F9A6C0BC4501DDA0F8A6707D
:103E0000B0F94870B74203DBB1F84E10012927D151
:103E1000996F29B3A0F86220418FA0F8B810818F64
:103E2000A0F8BA10B0F84010A0F8BE10B0F8841096
:103E3000A0F8AE1030F8881F4187C18801854189FC
:103E40008187018A4185818AC187418B8185C18BA8
:103E5000A0F840100CA000F099FB2868A0F84E4094
:103E6000BDE8F04104481E211E38FCF772B9BDE8D8
:103E7000F081000000440040BE0400205C000020EF
:103E8000600000204006002054525545000000000C
:103E90007047000007490968884200DD0846064966
:103EA0000968884200DA0846044980B20968086453
:103EB00070470000080000200000002008010020DA
:103EC000024980B209688863704700000801002039
:103ED00007490968884200DD0846064909688842A2
:103EE00000DA0846044980B2096888637047000018
:103EF000140000200C000020C0000020024980B205
:103F00000968486370470000C0000020FDF7FEBC50
:103F100030B58FB028216846FCF71BF914210AA898
:103F2000FCF717F901210804CDE9001000240294E0
:103F300002250491CDE907504FF4E010099068463E
:103F4000FDF780FE60B90F20CDE90A056802CDE9D2
:103F50000C4002210AA80E94FDF788FD002801D02C
:103F6000FDF7F0F80FB030BD70470000F0B5026803
:103F7000164B174C174D4FF08047984205D0B8426A
:103F800003D0A04201D0A84203D122F070064A68B3
:103F90003243984205D0B84203D0A04201D0A84293
:103FA00003D122F44074CA6822434C6922F0800293
:103FB000224302608A68C2620A688262984201D122
:103FC0000969016301214161F0BD0000002C01403D
:103FD000000400400008004010B501F01F0301215B
:103FE000046A99408C430462016A9A401143016259
:103FF00010BD000030B5026A22F001020262026ABE
:104000004368846924F073050C682C4322F0020590
:104010008A682A430A4DA8420BD122F00805CA68D3
:1040200023F440732A434D6922F004021D438B6937
:104030002B434360846149684163026230BD0000E4
:10404000002C014030B5026A22F010020262026ABE
:10405000436884690D6824F4E64444EA05248D68C5
:1040600022F0200242EA05120B4DA8420ED1CD6883
:1040700022F0800242EA05124D6923F4406343EACC
:1040800085038D6922F0400243EA85034360846121
:1040900049688163026230BD002C014030B5026A7C
:1040A00022F480720262036A4268C46923F40073D6
:1040B00024F073050C682C438D6843EA05230C4DEE
:1040C000A8420ED1CD6823F4006343EA05234D696D
:1040D00022F4405242EA05128D6923F4806342EAD9
:1040E00005124260C4614968C163036230BD0000CB
:1040F000002C014030B5026A22F480520262046A48
:104100004268C3690D6823F4E64343EA05238D68DA
:1041100024F4005444EA0534064DA84204D14D6904
:1041200022F4804242EA85124260C3614968016418
:10413000046230BD002C014010B5406A0021C185E9
:10414000C184FEF7C8F810BD70B5446A20684069A4
:1041500094F83D10C0F3C0100025212904D118B1F6
:10416000E584204600F083F82068406994F83E100A
:10417000C0F38010222904D118B1E585204600F053
:104180005EF8206C40F0100020642046FEF7A3F893
:1041900070BD10B50146406A0968096889061BD4DC
:1041A0000021C1850168CA6822F48072CA60016872
:1041B0004A6922F001024A6101684A6922F040021C
:1041C0004A61202180F83E10016B012904D1016869
:1041D000CA6822F01002CA60016B012902D0FEF702
:1041E00011FB10BD818DFEF749F810BD10B5406A76
:1041F000016B012902D0FEF713FB10BD818D490828
:10420000FEF73CF810BD10B50146406A0968096820
:1042100089060CD40021C18401684A6922F0800219
:104220004A610068C16841F04001C16010BDFEF7FD
:1042300093FB10BD10B5406AFEF78FFB10BD0168FF
:10424000CA6822F49072CA6001684A6922F00102C9
:104250004A61016B012904D10168CA6822F0100289
:10426000CA60202180F83E10002101637047016878
:10427000CA6822F0C002CA60202180F83D10704751
:1042800008B590F83E10222901D0022008BD8268AE
:104290004FF480539A4201D1016921B1816A9A4257
:1042A0001BD04AB10AE00268816A5268C2F3080270
:1042B0000A80816A891C08E0026972B1026852684A
:1042C00002F07F020A70816A491C8162C18D491E19
:1042D0000904090CC18503D019E002685268F1E7AE
:1042E0000168CA6822F02002CA600168CA6822F424
:1042F0008072CA6001684A6922F001024A61202185
:1043000080F83E10016B012903D0FEF77BFA0020F4
:1043100008BD002101630168CA6822F01002CA606A
:1043200001680A68D20602D50A6849680091818D41
:10433000FDF7A4FFEBE7000070B5044600680169D3
:10434000E26821F44051114301612169A0680843EA
:10435000616908432168CA6841F20C639A430243C9
:10436000CA6020684169A26921F44071114341612A
:104370001E492068884202D1FDF71EFC01E0FDF7CE
:104380000BFC00EBC00101EB0012606864218000AF
:10439000B2FBF0F3B3FBF1F36FF018067343B2FB1B
:1043A000F0F5B2FBF0F605EB8305322303EB0515C0
:1043B000B5FBF1F5B6FBF1F605F0F00505EB0615DA
:1043C000B2FBF0F6B2FBF0F0B0FBF1F06FF01802C8
:1043D000504306EB800003EB0010B0FBF1F02168C6
:1043E00000F00F002844886070BD000000380140D4
:1043F00038B5816282850025134604460564222073
:1044000084F83E00A26B13489062A26B1248D062FF
:10441000A26B12481063A06B0A4645632168A06B2B
:10442000091DFDF72DF9206801684168009184F8A5
:104430003C50C16841F48071C1602068416941F01D
:10444000010141612068416941F040014161002062
:1044500038BD000093410008ED41000849410008C3
:1044600081628285C28500210164222280F83E207B
:1044700080F83C100168CA6842F48072CA60016822
:104480004A6942F001024A610068C16841F02001B6
:10449000C160002070472DE9F041984617460E464E
:1044A0000446069D1DE0681C1BD02DB1FDF728FABF
:1044B000A0EB0800A84214D92068C16821F4D0718B
:1044C000C1602068416921F001014161202084F828
:1044D0003D0084F83E00002084F83C000320BDE845
:1044E000F0812068006836EA000004D00020B8425D
:1044F000D9D00020F3E70120F9E7000038B50D4CD2
:1045000020680068C0F3001070B12046FDF7B7FEC8
:10451000FCF722FE20680168406800904FF47A7230
:1045200005492046FEF744F9BDE838400148FDF74B
:10453000D3BE0000B4010020200E00200148FDF78A
:10454000CBBE0000F801002008B50D48FDF7C4FE01
:104550000B4800680168C1F3001100290FD0016801
:10456000406800900648FDF78AFEFCF781FABDE836
:1045700008404FF47A7203490148FEF719B908BDA3
:104580003C020020380A0020FEE700000FB4054B73
:1045900010B503A9044A029800F000F910BC5DF8B8
:1045A00014FB0000E14E0008BC0000207CB504466E
:1045B00000201D46164600290BD0491ECDE90041BA
:1045C000044B6A462946304600F0E8F8009A00217C
:1045D00011707CBDCB4E00080907090E002804DBD2
:1045E00000F1E02080F80014704700F00F0000F1A7
:1045F000E02080F8141D704702E008C8121F08C1AF
:10460000002AFAD170477047002001E001C1121F53
:10461000002AFBD1704700002DE9FF5F82B0002126
:10462000DDE90430020DDDF840B0034318D044F654
:104630001050A2F2FF3242431514119801281FD0E6
:10464000A5EB0B00401C5FEA000A4FF000064E4F3E
:10465000DFF83891B046504615D5CAF1000413E092
:10466000119801244AA3012801D16FEA0B01029895
:10467000119AC0E90031C0E9024206B0BDE8F09FDE
:10468000CBF10000DFE704460021404A491842EB25
:104690000450CDE9001012E0E00707D032463B4657
:1046A00040464946FBF7CFFE8046894632463B46A8
:1046B00010461946FBF7C7FE06460F466410002C4D
:1046C000EAD1DDE90401DDE90023BAF1000F06DAE1
:1046D000FBF7B9FE42464B46FBF7B5FE05E0FBF79C
:1046E00024FF42464B46FBF720FF04460E460022BD
:1046F000284BFCF725F903D84FF0FF30014607E0BF
:104700000022254B20463146FBF7F6FDFCF700F969
:10471000102409E0002C0ADB0A220023FCF712F81F
:10472000039B30321A55641E50EA0102F2D1641C18
:10473000039AC4F111031444119A012A03D00122EF
:1047400008430DD10AE0084304D000204FF0110BBC
:10475000119072E7A3EB0B056D1E0DE05B4504DDC8
:104760004FF0000205F1010504E003DA4FF000020A
:10477000A5F10105002AECD002981199C0E9023197
:10478000C0E9004579E70000000014400000F03F58
:10479000300000000000F0430000E03F2DE9FF4F33
:1047A00095B09B468946064600250FE2252877D11D
:1047B00000242746F84A0121059400E0044316F836
:1047C000013F203B01FA03F01042F7D130782A284C
:1047D00011D06FF02F033078A0F13002092A16D8DB
:1047E000059A44F0020402EB820203EB42021044F9
:1047F000761C0590EFE759F8042B0592002A03DA9E
:10480000504244F40054059044F00204761C307881
:104810002E2816D116F8010F44F004042A280DD0D2
:104820006FF02F023078A0F13003092B09D807EB85
:10483000870302EB4303C718761CF3E759F8047BA0
:10484000761C30786C280FD006DC4C2817D06828EE
:104850000DD06A2814D104E0742810D07A280FD122
:104860000DE044F400140AE044F4801401E044F440
:1048700040147278824202D104F58014761C761CB2
:10488000307866280BD013DC582877D009DC002854
:1048900075D04528F6D04628F4D047281AD19DE196
:1048A00018E0632835D0642879D0652812D195E1C5
:1048B000702873D008DC6728F1D069286FD06E2883
:1048C0000DD06F2806D1B5E073282CD0752875D08F
:1048D000782874D05A46179990476D1C75E1C4F337
:1048E0000250022809D003280DD0D9F8001004285E
:1048F0000DD00D6009F1040967E1D9F80010EA173D
:10490000C1E90052F6E7D9F800100D80F2E70D700A
:10491000F0E719F8041B8DF8001000208DF8010055
:10492000EA46012003E059F804AB4FF0FF3061077D
:104930004FF0000102D40DE008F101018846B942B0
:104940000FDA8045F8DB1AF808100029F4D108E0E6
:1049500008F1010188468142FADB1AF808100029A3
:10496000F6D105985B46A0EB080721463846179A12
:1049700000F094FA284400EB080507E04DE029E137
:104980000DE01AF8010B5A4617999047B8F1010843
:10499000F7D25B4621463846179A13E142E00A22D5
:1049A0000092C4F302524FF0000A022A08D059F8CC
:1049B00004CB032A4FEAEC710AD00DE029E02AE08B
:1049C00009F1070121F00702F2E802C1914609E06E
:1049D0000FFA8CFC4FEAEC71042A03D14FFA8CFCDD
:1049E0004FEAEC71002907DA0A460021DCF1000CDD
:1049F00061EB02012D2202E0220504D52B228DF865
:104A00000420012203E0E20701D02022F7E79046CC
:104A100059E00A2102E010220DE010214FF0000AB7
:104A200000910BE010224FF0000A44F00404082724
:104A3000009203E008224FF0000A0092C4F30252F1
:104A4000022A05D059F804CB0021032A08D009E036
:104A500009F1070121F00702F2E802C1914605E0E1
:104A60001FFA8CFC042A01D10CF0FF0C4FF0000857
:104A7000220728D5702806D0009B83F0100353EA44
:104A80000A0305D00EE040228DF80420012208E040
:104A90005CEA010206D030228DF804208DF8050072
:104AA00002229046009B83F0080353EA0A030AD1CE
:104AB0005CEA010201D1620705D530228DF804209D
:104AC0004FF001087F1E582804D034A003900EA890
:104AD00002900DE036A0F9E753466046009AFBF7D6
:104AE00031FE84460398825C0298401E0290027058
:104AF0005CEA0100F0D1029806A9081A00F1200A28
:104B0000600702D524F4803400E00127574502DD18
:104B1000A7EB0A0000E0002000EB0A0100900598D6
:104B20004144401A0590E00306D45B462146179A9B
:104B3000059800F0B3F90544002706E001A85A469D
:104B4000C05D179990476D1C7F1C4745F6DBE0035D
:104B50000CD55B462146179A059800F09FF905444D
:104B600004E030205A46179990476D1C0099481E62
:104B700000900029F5DC08E0029802995A46007876
:104B8000491C0291179990476D1CBAF10001AAF1D6
:104B9000010AF1DC65E100000928010030313233FF
:104BA0003435363738396162636465660000000069
:104BB0003031323334353637383941424344454653
:104BC0000000000000F058F90544761C30780028F9
:104BD0007FF4ECAD19B02846BDE8F08F620700D431
:104BE000062709F1070222F0070CFCE80223E14640
:104BF00003F000485FEA080C02D00FF2702C0DE0C1
:104C00005FEA045C02D50FF2682C07E05FEAC47C1F
:104C100002D00FF2602C01E0AFF2700C4FF0FF38C1
:104C200023F00043CDF850C065280CD006DC4528A1
:104C300009D046281DD047283DD13DE0662818D030
:104C400067287ED138E00021112F01DB112000E020
:104C5000781CCDE9000106A90EA8FFF7DDFCDDE90F
:104C60000F010E9A03910021009207F1010A0491AD
:104C70004DE04FF000400097CDE9011006A90EA8C5
:104C8000FFF7CAFCDDE90F0203920E9B1199002287
:104C9000DDF80CA00093049211B9791C00EB010A15
:104CA000B7EB0A0004D4C0F1FF3007F1010A049009
:104CB000AAEB0700019044E0012F00DA0127002150
:104CC000112F01DD112000E03846CDE9000106A9D1
:104CD0000EA8FFF7A1FCDDE90F010E9A0391002158
:104CE00004910092BA4621070CD40399514500DA89
:104CF0008A46BAF1010F05DD009AAAF10101515C63
:104D0000302908D0B84202DA10F1040F06DA012186
:104D1000CDE9011015E0AAF10101E9E7002805DC61
:104D2000049901440491AAEB000102E0411C5145A1
:104D300000DD8A460499401A401C01904FF0004063
:104D40000290200704D40198504501DBCDF804807F
:104D500000208DF84F0002980DF14F07B0F1004F81
:104D600025D02B200E9002984FF0020800280CDA74
:104D7000404202902D200E9007E00A210298FBF796
:104D8000CBFC3031029007F8011DB8F10001A8F109
:104D90000108F2DC02980028EFD1791E0E98087005
:104DA000307800F0200040F0450007F8020D12A80E
:104DB000C01B00F107081498007800B1012000EB37
:104DC0000A01019801EBE07105984144401A401E28
:104DD0000590E00306D45B462146179A059800F03B
:104DE0005DF805441498007818B15A461799904711
:104DF0006D1CE00324D55B462146179A059800F008
:104E00004DF805441CE00498002807DBDDE90301A8
:104E1000884203DD0098405C179901E01799302023
:104E20005A469047049805F10105401C04900198EA
:104E3000401E019004D12E205A46179990476D1CB0
:104E4000BAF10001AAF1010ADDDC05E017F8010B57
:104E50005A46179990476D1CB8F10001A8F1010856
:104E6000F4DC5B462146179A0598ABE62D0000005E
:104E70002B000000200000002DE9F0410446002531
:104E80001E461746880404D405E039462020B04762
:104E90006D1C641EF9D52846BDE8F0812DE9F0416E
:104EA000044600251E469046C80301D5302700E081
:104EB0002027880404D505E041463846B0476D1CDC
:104EC000641EF9D52846BDE8F0814A68002A06D05C
:104ED0000A68531C0B6010704868401E4860704799
:104EE00013B54FF6FF73012269460248FDF79AFC9D
:104EF00000981CBD3C0200208CB0FCF70FFDFFF7B2
:104F000007F8FEF7A9F9FEF771F9FEF7E5F9FEF7E4
:104F1000A1FAFEF783FAFEF7BFFAFEF72FFAFDF7C4
:104F20001FFDFEF7ADFD0F4C0FA0FFF72FFBFEF7A7
:104F3000B9FE04F130000DF1200C0FC88CE80F0011
:104F400004F120000DF1100C0FC88CE80F0004F1E3
:104F500010000FC88DE80F0094E80F00FDF7DEFD8C
:104F6000E2E7000000000020363636002DE9F0416F
:104F7000064698460D461046069FFBF747F904463D
:104F800041463846FBF742F92146FBF777F90446DC
:104F900029463046FBF73AF92146FBF73DF94146F1
:104FA000BDE8F041FBF7E0B810B54B49002201EB3A
:104FB0004204835C521C2381192AF8DBC27D1AB19A
:104FC000002081F85A0010BD012281F85A20B0F863
:104FD0000120C2F30A0221F83A2F8278C378D2085E
:104FE00042EA4312C2F30A024A80C2780379920964
:104FF00042EA8302437942EA8322C2F30A028A80A8
:1050000042798379520842EAC312C2F30A02CA8083
:105010008279C379120942EA0312C2F30A020A81B1
:10502000C279037AD20942EA4302437A42EA43222E
:10503000C2F30A024A81427A837A920842EA8312D0
:10504000C2F30A028A81827AC37A520942EAC3020F
:10505000CA818289C2F30A020A82427B837BD20818
:1050600042EA4312C2F30A024A82827BC37B92095C
:1050700042EA8302037C42EA8322C2F30A028A8262
:10508000027C437C520842EAC312C2F30A02CA827B
:10509000427C1209837C42EA0312C2F30A020A83A9
:1050A000827CC37CD20942EA4302037D42EA432266
:1050B000C2F30A024A83027D437D920842EA8312C8
:1050C000C2F30A028A83427D807D520942EAC0000F
:1050D000C883012010BD0000D403002000000000A0
:1050E0000000000001020304060708090000000098
:1050F000010203041451000800000020C000000059
:10510000F8450008D4510008C0000020981600009F
:105110000846000800000000000000000000000039
:10512000000000000000000000000000000000007F
:10513000000000000000000000000000000000006F
:10514000000000000000000000000000000000005F
:10515000000000000000000000000000000000004F
:105160000100000010000000000000000024F40016
:10517000000000000000000000000000010000002E
:10518000010000000100000001000000010000001B
:10519000000000000000000000000000000000000F
:1051A00000000000000000000000000000000000FF
:1051B00000000000000000000000000000000000EF
:1051C00000000000000000000000000000000000DF
:0451D00000000000DB
:04000005080000ED02
:00000001FF
