S31508000000F80400200501000871260008E71F00080B
S315080000106D260008030B00087D2800080000000074
S31508000020000000000000000000000000A1260008F3
S31508000030070B00080000000075260008A326000824
S315080000401F0100081F0100081F0100081F01000802
S315080000501F0100081F0100081F0100081F010008F2
S315080000601F0100081F0100081F0100081F010008E2
S315080000701F0100081F0100081F0100081F010008D2
S315080000801F0100081F0100081F0100081F010008C2
S315080000901F0100081F0100081F0100081F010008B2
S315080000A01F0100081F0100081F0100081F010008A2
S315080000B01F0100081F0100081F0100081F01000892
S315080000C01F0100081F0100081F0100081F01000882
S315080000D01F0100081F0100081F0100081F01000872
S315080000E01F0100081F0100081F010008DFF810D0D3
S315080000F000F0A4FC00480047394C0008AFF3008024
S31508000100F80400200648804706480047FEE7FEE751
S31508000110FEE7FEE7FEE7FEE7FEE7FEE7FEE7FEE7A9
S3150800012011270008ED0000082DE9F0410024061B00
S31508000130254671F1000605DA01240027D0EB0700F1
S3150800014067EB0101161E73F1000605DA0027D2EBEC
S315080001500702012567EB030300F02AFB86460E46D5
S3150800016017469C46AC4204D00025D0EB050E65EB3D
S31508000170010624B10020D2EB000760EB030C7046A1
S3150800018031463A466346BDE8F081202A04DB203A28
S3150800019021FA02F00021704721FA02F3D040C2F199
S315080001A020029140084319467047D2B201E000F890
S315080001B0012B491EFBD270470022F6E710B51346FD
S315080001C00A4604461946FFF7F0FF204610BD30B52B
S315080001D004460020034600E05B1C934203D2E05C21
S315080001E0CD5C401BF8D030BDF0B480EA0102D40FD4
S315080001F04200B2EB410F02D20246084611464A00B7
S3150800020042D0C30DDDB2C1F3C752AD1A202D35DA7F
S31508000210C1F3160141F4000204B15242C5F12006A9
S3150800022002FA06F12A411044B3EBD05F23D0C4B1D9
S31508000230012DA0EBC35009DCF0BC4FF0004202EAE6
S31508000240C352DBB200F5000000F00DBB400000F120
S31508000250807000EBC350A0F1807040EAD17049006D
S3150800026009E0490841EAC071A0EBC35000F5000057
S31508000270400800EBC350F0BC00F0ECBA6142012222
S3150800028002EB4101001BF6E7F0BC704781F0004124
S31508000290AAE780F00040A7E780EA010210B502F05D
S315080002A00043400022D04A001FD0010E01EB126124
S315080002B0C0F35600C2F3560240F4000042F40002AE
S315080002C0A0FB022000047F39140400D0401C50EA29
S315080002D0124001D44000491EC2B20C0604EBD010ED
S315080002E0401C4008802A02D003E0002010BD20F000
S315080002F00100002900DA0020184310BD30B480EA56
S31508000300010202F0004530F0004221F0004013D00F
S3150800031090B1C30DD40DC2F31601C0F31600E41A4A
S3150800032041F4000140F400027D34914201D3641C7B
S3150800033000E04900002C02DA30BC002070474FF478
S3150800034000000023914201D3891A034340084FEA6B
S315080003504101F7D151B1914202D14FF0004105E078
S3150800036002D24FF0010101E06FF0010103EBC45026
S31508000370284430BC00F06EBA2DE9FE4F804681EA6B
S315080003800300C00F0C46009021F0004123F0004501
S31508000390B8EB0200A94105D24046214690461C46C4
S315080003A00B46024623F00040104347D0270DC7F3FB
S315080003B00A00C3F30A510290401A019040286BDAEA
S315080003C0C3F3130040F4801B0098924620B1002323
S315080003D0D2EB030A63EB0B0B01985946C0F14002B6
S315080003E0504600F016FA06460D4650465946019AFA
S315080003F000F01EFA10EB08006141002487EA11524A
S3150800040084EAE7731A4340D0009A62B3019A012A34
S315080004104FEA075215DC001B61EB02014FF0004260
S3150800042002EA0752CDE90042001C41F58011324626
S315080004302B4600F055FA03B0BDE8F08F404621463A
S31508000440F9E7001B61EB0201001C41F58013001857
S315080004505B412018A2F5001747EB030140EAD57067
S31508000460B6196D4111E06D084FEA360645EAC075C2
S315080004704FEA0752001B61EB0201001C41F580118F
S3150800048049084FEA30000019514132462B4603B05D
S31508000490BDE8F04F00F015BA00980122400000238D
S315080004A0D0EB020263EBE073009821464FEAE07452
S315080004B0B8EB000061EB0401E9E783F000435BE772
S315080004C081F0004158E72DE9FE4F81EA030404F064
S315080004D0004421F0004100944FF0000B23F0004344
S315080004E050EA01045ED052EA03045BD0C3F30A540F
S315080004F0C1F30A552C44A4F2F3340194A0FB025428
S31508000500C1F3130141F48011C3F3130343F48013B9
S3150800051001FB024400FB034E840A970A44EA81540D
S3150800052047EA8357A4FB076802958D0A05FB0785EA
S315080005304FEA932C04FB0C542705029D4FEA0658F4
S3150800054047EA1637B5EB08056EEB070C870E920ED1
S3150800055047EA811742EA8312A7FB0201B6EB0B01B1
S3150800056064EB00042B0D43EA0C335E1844EB1C5075
S31508000570DA465146E7FB0201C5F313044FEA0B338B
S3150800058043EA14534FEA0432019C43EA0603A4F1F2
S315080005900C040294009CCDE900B400F0A1F903B064
S315080005A0BDE8F08F00200146F9E72DE9F04D81EA14
S315080005B0030404F0004B21F0004514464FF0000AEE
S315080005C023F0004150EA050220D054EA01021DD06A
S315080005D0C5F30A570246C5F31303C1F31300C1F363
S315080005E00A5640F4801543F48013A7EB0608101B3F
S315080005F0D64608F2FD3873EB050002D308F1010868
S3150800060001E092185B41B8F1000F03DA00200146B9
S31508000610BDE8F08D00204FF48011064684460EE0B2
S31508000620171B73EB050705D3121B63EB050306437C
S315080006304CEA010C49084FEA300092185B4150EA2F
S315080006400107EDD152EA030012D082EA040083EAD8
S315080006500501084305D0101BAB4106D20122002331
S3150800066006E000224FF0004302E06FF0010253104B
S315080006701AEB06004CEB085110EB0A0041EB0B0194
S31508000680BDE8F04D00F01DB9C10F80EAE0700844DE
S31508000690CA079623002100F0E6B8962300221146E1
S315080006A000F0E1B800F0004220F00040C10DC0F3B0
S315080006B0160040F400007F2901DA002070479629C9
S315080006C003DCC1F19601C84001E096398840002A4A
S315080006D0F4D04042704720F00040C10DC0F3160028
S315080006E040F400007F2901DA00207047962903DCD0
S315080006F0C1F19601C840704796398840704700F0A6
S31508000700004230F000400AD0C10D01F56071C0F317
S31508000710160042EA0151C2084007114370470020FB
S315080007200146704701F0004330B421F0004150EA19
S31508000730010206D00A0DA2F56072C1F31301002A60
S3150800074002DC30BC00207047440F44EAC104C100F3
S31508000750E01830BC00EBC25000F07CB8002801DB82
S31508000760C0F10040002901DBC1F100418142704718
S31508000770002801DBC0F10040002901DBC1F100417E
S315080007808842704730B50B460146002020220124D6
S3150800079009E021FA02F59D4205D303FA02F5491B41
S315080007A004FA02F52844151EA2F10102F1DC30BD57
S315080007B02DE9F05F0546002092469B468846064688
S315080007C0814640241BE02846414647462246FFF715
S315080007D0DCFC53465A46C01A914110D311461846B6
S315080007E0224600F016F82D1A67EB01084F462246F6
S315080007F00120002100F00DF817EB00094E41201EDC
S31508000800A4F10104DFDC484631462A464346BDE8E2
S31508000810F09F202A04DB203A00FA02F100207047F4
S315080008209140C2F1200320FA03F319439040704720
S31508000830202A06DBCB17203A41FA02F043EAE07396
S3150800084006E041FA02F3D040C2F120029140084383
S31508000850194670470029A8BF7047401C490008BFC1
S3150800086020F00100704710B4B0FA80FC00FA0CF0D2
S3150800087050EA010404BF10BC704749B1CCF120040A
S3150800088021FA04F411FA0CF118BF01212143084397
S31508000890A3EB0C01CB1D4FEA00614FEA102042BFC3
S315080008A0002010BC704700EBC35010440029A4BFB9
S315080008B010BC7047401C490008BF20F0010010BC5E
S315080008C0704710B5141E73F1000408DA401C41F194
S315080008D0000192185B411A4301D120F0010010BDB6
S315080008E02DE9F04D92469B4611B1B1FA81F202E02C
S315080008F0B0FA80F220329046FFF78BFF04460F4687
S3150800090040EA0A0041EA0B0153465A46084313D007
S31508000910114653EA010019D0C8F140025046FFF7C4
S3150800092034FC05460E46504659464246FFF771FFC7
S31508000930084305D0012004E020463946BDE8F08D7D
S315080009400020054346EAE0762C4337430A986305B8
S31508000950E40AA0EB08000022FD0A44EA47540A30DC
S3150800096002D500200146E9E7010510196941DDE9CC
S31508000970084500196941BDE8F04DA2E770B521F0B8
S31508000980004303430CD0C1F30A550024D5EB0405F4
S3150800099064EB0403D617AD1AB34102DB0020014607
S315080009A070BD201841EB025170BDC1F30A52C1F364
S315080009B0130140F2FF3341F480119A4202DA002013
S315080009C00146704740F233439A42A2F2334202DCB0
S315080009D05242FFF7DABBFFF71CBF000030B5041E12
S315080009E071F1000404DB4FF00044404264EB01015E
S315080009F0141E73F1000405DB1C464FF000435242F7
S31508000A0063EB04038B4208BF824230BD30B5041E37
S31508000A1071F1000404DB4FF00044404264EB01012D
S31508000A20141E73F1000405DB1C464FF000435242C6
S31508000A3063EB0403994208BF904230BD064C074D4C
S31508000A4006E0E06840F0010394E807009847103490
S31508000A50AC42F6D3FFF74EFBC86E0008E86E0008F6
S31508000A602DE9F04D00231A461B1A8A4103DB0020A4
S31508000A700146BDE8F08DC1F30A52C1F3130141F4F2
S31508000A8080154FF0000BD10702D100186D41521E98
S31508000A900027044640F2FF11384601EB620A3E463B
S31508000AA08046024600204FF48011FFF76EFBC219FC
S31508000AB07141BB1846EB0100B4EB030C75EB000C57
S31508000AC004D3E41A65EB000517460E46241908F107
S31508000AD001006D4180463428E3DDF91946EB06002E
S31508000AE0091BA84103D24FF0FF32134601E000224A
S31508000AF013461BEB070046EB0A51BDE8F04DFFF71E
S31508000B00E0BE00BFFEE7704772B600BFFEE7000012
S31508000B1070B5044600F0B0F906462546681C10B1C3
S31508000B2004480078054400BF00F0A6F9801BA842D7
S31508000B30FAD370BD0C0000202DE9F84703460022C1
S31508000B4094466EE14FF0010808FA02F4D1F80080E5
S31508000B5008EA0400A0427DD1DFF8DCA2D1F80480BF
S31508000B60A8EB0A09D0453AD014DCB8F1030F50D0E7
S31508000B7009DCB8F1000F31D0B8F1010F1CD0B8F17B
S31508000B80020F49D120E0B8F1110F18D0B8F1120FB1
S31508000B9042D11EE0B9F5881F25D006DCB9F5803F9D
S31508000BA020D0B9F5801F37D11AE0B9F5001F18D043
S31508000BB0B9F5041F30D117E0D1F80CC02DE0D1F8F3
S31508000BC00C8008F1040C28E0D1F80C8008F1080C18
S31508000BD023E0D1F80C8008F10C0C1EE000BF00BF22
S31508000BE000BF00BF00BF00BFD1F80880B8F1000FF2
S31508000BF002D14FF0040C0BE0D1F80880B8F1010FD0
S31508000C0003D14FF0080C1C6102E04FF0080C5C6140
S31508000C1003E04FF0000C00E000BF00BFFF2801D83A
S31508000C20984601E003F104084646FF2802D84FEA31
S31508000C30820803E0A2F108084FEA88084746D6F872
S31508000C4000804FF00F0909FA07F928EA09080CFA93
S31508000C5007F900E088E048EA0908C6F80080D1F8F4
S31508000C60048008F08058B8F1805F7DD100BFDFF8B6
S31508000C70CC81D8F8188048F00108DFF8C091C9F887
S31508000C801880C846D8F8188008F00108CDF8008002
S31508000C9000BF00BF4FEAB9384FEA920958F8295001
S31508000CA04FEA82784FEA18794FF00F0808FA09F8E0
S31508000CB025EA0805DFF88881434502D14FF0000888
S31508000CC016E0DFF88081434502D14FF001080FE0B6
S31508000CD0DFF87481434502D14FF0020808E0DFF8D7
S31508000CE06C81434502D14FF0030801E04FF0040838
S31508000CF04FEA82794FEA197908FA09F848EA0505A8
S31508000D00DFF84C814FEA920948F82950D1F8048057
S31508000D1008F48038B8F5803F0AD1DFF83881D8F86A
S31508000D20008048EA0008DFF82C91C9F8008009E03D
S31508000D30DFF82081D8F8008028EA0008DFF8149147
S31508000D40C9F80080D1F8048008F40038B8F5003FE7
S31508000D5010D1DFF8008108F10408D8F8008048EAC5
S31508000D600008DFF8F09000E05AE009F10409C9F834
S31508000D7000800DE0DFF8DC8008F10408D8F8008070
S31508000D8028EA0008DFF8CC9009F10409C9F80080C0
S31508000D90D1F8048008F48018B8F5801F0ED1DFF862
S31508000DA0B48008F10808D8F8008048EA0008DFF897
S31508000DB0A49009F10809C9F800800DE0DFF89480CD
S31508000DC008F10808D8F8008028EA0008DFF88490B7
S31508000DD009F10809C9F80080D1F8048008F4001858
S31508000DE0B8F5001F0ED1DFF86C8008F10C08D8F8AA
S31508000DF0008048EA0008DFF85C9009F10C09C9F898
S31508000E0000800DE0DFF84C8008F10C08D8F8008067
S31508000E1028EA0008DFF83C9009F10C09C9F80080B7
S31508000E20521CD1F8008028FA02F8B8F1000F7FF4B6
S31508000E3089AEBDE8F88700000000111000100240D6
S31508000E4000080140000C0140001001400014014058
S31508000E50080001400004014010B5C26821EA0203F7
S31508000E6002EA010443EA0443036110BD0AB10161C1
S31508000E7001E00B04036170470148006870470000F1
S31508000E800400002070B504460CB9012070BD94F822
S31508000E903D0028B9002084F83C00204600F03EFBBF
S31508000EA0242084F83D002068006820F001002168AD
S31508000EB008602068006840F40040216808602068DF
S31508000EC0006820F400402168086000F0EFFC054641
S31508000ED05C496068884206D85B48854201D2012091
S31508000EE007E0002005E05948854201D2012000E0CC
S31508000EF00020012800D1C9E75548B5FBF0F620685F
S31508000F00406820F03F003043216848604D496068DA
S31508000F10884201D8701C07E04FF4967070434FF46E
S31508000F207A71B0FBF1F0401C2168096A21F03F0193
S31508000F3008432168086243496068884214D8681ED5
S31508000F4061684900B0FBF1F0401CC0F30B000428AF
S31508000F5001D204203DE0681E61684900B0FBF1F04B
S31508000F60401CC0F30B0034E0A06838B9681E6168FD
S31508000F7001EB4101B0FBF1F0401C0AE0681E616814
S31508000F8001EBC10202EB0111B0FBF1F0401C40F489
S31508000F908040C0F30B0008B901201AE0A06848B9E0
S31508000FA0681E616801EB4101B0FBF1F0401CC0F31B
S31508000FB00B000CE0681E616801EBC10202EB01112F
S31508000FC0B0FBF1F0401CC0F30B0040F4804040F445
S31508000FD000402168C9694CF6FF72914308432168AD
S31508000FE0C861D4E9070108432168096821F0C001EE
S31508000FF0084321680860D4E9031008432168896812
S3150800100048F2FF329143084321688860D4E9050114
S3150800101008432168C96821F0FF0108432168C860B0
S315080010202068006840F001002168086000202064FC
S31508001030202084F83D000020206384F83E0000BF8D
S3150800104024E70000A086010080841E0000093D00F8
S3150800105040420F002DE9FE4F04460F46904699463A
S31508001060DDE90CAB0E9E00200290FFF705FF054652
S3150800107094F83D00202872D119230122CA49204636
S31508001080009501F01FF910B10220BDE8FE8F00BFE0
S3150800109094F83C00012801D10220F6E7012084F8E3
S315080010A03C0000BF2068006800F0010028B92068ED
S315080010B0006840F00100216808602068006820F494
S315080010C0006021680860222084F83D00402084F8EA
S315080010D03E0000202064C4F824A0A4F82AB0608D3D
S315080010E02085B248E0624B46424639462046CDE95D
S315080010F0006500F099FF08B10120C6E7208D88B980
S3150800110000BF00200190206840690190206880692E
S31508001110019000BF00BF2068006840F40070216895
S3150800112008604BE0208D01281AD12068006820F459
S3150800113080602168086072B600BF002001902068B0
S315080011404069019020688069019000BF00BF20684F
S31508001150006840F400702168086062B62EE020E15D
S31508001160208D022819D12068006840F400602168A3
S31508001170086072B600BF002001902068406901909F
S3150800118020688069019000BF00BF2068006820F4CD
S3150800119080602168086062B610E02068006840F444
S315080011A080602168086000BF0020019020684069BF
S315080011B0019020688069019000BF00BFE2E0208DA1
S315080011C003287DD8208D012815D12A463146204688
S315080011D001F01DF908B1012057E720680069616A26
S315080011E00870606A401C6062208D401E2085608DF4
S315080011F0401E6085C6E0208D02282CD13346002289
S315080012006B492046009501F05DF808B101203CE7DE
S3150800121072B62068006840F400702168086020688B
S315080012200069616A0870606A401C6062208D401E11
S315080012302085608D401E608562B620680069616AF7
S315080012400870606A401C6062208D401E2085608D93
S31508001250401E608596E03346002255492046009593
S3150800126001F030F808B101200FE72068006820F483
S3150800127080602168086072B620680069616A087033
S31508001280606A401C6062208D401E2085608D401E6D
S315080012906085484800681921B0FBF1F04FF47A716F
S315080012A0B0FBF1F0C0EBC00000EB8000029000BF7D
S315080012B00298401E02900298A8B90020206300E018
S315080012C039E0202084F83D00002084F83E00206C98
S315080012D040F02000206462B600BF002084F83C007D
S315080012E000BF0120D1E620684069C0F380000028CD
S315080012F0DED02068006840F4007021680860206825
S315080013000069616A0870606A401C6062208D401E30
S315080013102085608D401E608562B620680069616A16
S315080013200870606A401C6062208D401E2085608DB2
S31508001330401E608526E02A463146204601F067F8B9
S3150800134008B10120A1E620680069616A0870606A30
S31508001350401C6062208D401E2085608D401E608581
S3150800136020684069C0F3800060B120680069616A3E
S315080013700870606A401C6062208D401E2085608D62
S31508001380401E6085208D00287FF419AF202084F840
S315080013903D00002084F83E0000BF84F83C0000BFF2
S315080013A073E6022071E60000020010000000FFFF4D
S315080013B004000100000000202DE9FC5F04460F46EA
S315080013C090469946DDE90CAB0E9EFFF755FD05469E
S315080013D094F83D0020287DD1192301224D49204645
S315080013E0009500F06FFF10B10220BDE8FC9F00BF1A
S315080013F094F83C00012801D10220F6E7012084F880
S315080014003C0000BF2068006800F0010028B9206889
S31508001410006840F00100216808602068006820F430
S31508001420006021680860212084F83D00402084F887
S315080014303E0000202064C4F824A0A4F82AB0608DD9
S3150800144020853548E0624B46424639462046CDE976
S31508001450006500F099FE08B10120C6E731E02A468A
S315080014603146204601F013F850B1206C042805D106
S315080014702068006840F40070216808600120B4E71D
S31508001480606A007821680861606A401C6062208D85
S31508001490401E2085608D401E608520684069C0F327
S315080014A0800070B1208D60B1606A0078216808619B
S315080014B0606A401C6062208D401E2085608D401E3B
S315080014C06085208D0028CAD12A463146204600F07C
S315080014D0CBFE00E01CE050B1206C042805D1206842
S315080014E0006840F400702168086001207DE72068E4
S315080014F0006840F4007021680860202084F83D00E8
S31508001500002084F83E0000BF84F83C0000BF6CE76A
S3150800151002206AE7020010000000FFFF10B586B03F
S31508001520044600200290039004900590154920680F
S31508001530884225D100BF1448806940F00800124946
S3150800154088610846806900F00800019000BF00BF66
S31508001550C0200290122003900320059002A90B4890
S31508001560FFF7EAFA00BF0848C06940F400100649C8
S31508001570C8610846C06900F40010019000BF00BFAA
S3150800158006B010BD0054004000100240000C014097
S315080015900348006803490978084401490860704708
S315080015A0040000200C00002010B50848006840F030
S315080015B0100006490860032000F098F8002000F0A3
S315080015C007F800F02BF8002010BD000000200240AC
S315080015D070B504460E4800784FF47A71B1FBF0F006
S315080015E00C490968B1FBF0F5284600F0FBFB08B189
S315080015F0012070BD102C07D200222146501E00F093
S3150800160037F80548046001E00120F2E70020F0E71A
S315080016100C000020000000200800002008B500BFCC
S315080016201148806940F001000F49886108468069C1
S3150800163000F00100009000BF00BF00BF0846C06967
S3150800164040F08050C8610846C06900F0805000909C
S3150800165000BF00BF00BF0549486820F0E06040F0C1
S315080016600070486000BF08BD00100240000001403D
S315080016702DE9F05F80460D461646002701F024F94D
S31508001680074639462A46334601F00700C0F1070ADD
S31508001690BAF1040F02D94FF0040A01E0C0F1070AB3
S315080016A0D14600F1040ABAF1070F02D24FF0000A38
S315080016B001E0A0F1030AD4464FF0010A0AFA09FA32
S315080016C0AAF1010A0AEA020A0AFA0CFA4FF0010B11
S315080016D00BFA0CFBABF1010B0BEA030B4AEA0B0402
S315080016E02146404601F0F8F8BDE8F09F00BF00F03B
S315080016F00702064B19684FF6FF031940044B0B43C4
S3150800170043EA0221014B196000BF70470CED00E067
S315080017100000FA0570B504460D460CB9012070BDE7
S315080017205A48006800F00700A8420ED257480068D9
S3150800173020F007002843554908600846006800F06D
S315080017400700A84201D00120E9E7207800F002004E
S3150800175002281DD1207800F00400042805D14C4841
S31508001760406840F4E0604A494860207800F0080084
S31508001770082805D14648406840F460504449486006
S315080017804348406820F0F000A16808434049486093
S31508001790207800F0010078B36068012806D13C483B
S315080017A0006800F4003090B90120B8E760680228A4
S315080017B006D13748006800F0007040B90120AEE74E
S315080017C03348006800F0020008B90120A7E730484E
S315080017D0406820F00300616808432D494860FFF718
S315080017E04BFB064609E0FFF747FB801B41F28831B1
S315080017F0884202D9032092E707E02548406800F0AE
S315080018000C006168B0EB810FEDD12048006800F04C
S315080018100700A8420ED91D48006820F00700284393
S315080018201A4908600846006800F00700A84201D077
S31508001830012074E7207800F00400042807D1144832
S31508001840406820F4E060E168084311494860207860
S3150800185000F00800082808D10D48406820F46050B8
S31508001860216940EAC1000A49486000F03FF8084982
S315080018704968C1F30311074A515CC8400649086024
S3150800188006480068FFF7A4FE002048E7002002404B
S315080018900010024024610008000000200800002013
S315080018A001480068704700000000002000B5FFF7F7
S315080018B0F7FF04494968C1F30221034A515CC8404D
S315080018C000BD0000001002403461000800B5FFF7B3
S315080018D0E7FF04494968C1F3C221034A515CC8407D
S315080018E000BD00000010024034610008F0B585B064
S315080018F00FF26C0C9CE8E01001A8A0E8E0101CA50B
S315080019002D68009500210022002300240020194D8F
S31508001910696801F00C05F5B1042D02D0082D19D11E
S3150800192001E0154819E001ADC1F38346AC5D01F449
S31508001930803555B10F4D6D68C5F340451DF8052036
S315080019400D4D6543B5FBF2F302E00C4D04FB05F3C0
S31508001950184602E000BF084800BF00BF05B0F0BD4A
S3150800196002030405060708090A0B0C0D0E0F1010D2
S31508001970010200000010024000127A0000093D0032
S31508001980F8B504460CB90120F8BD207800F001002E
S31508001990002878D0F848406800F00C0004280CD0DD
S315080019A0F548406800F00C00082811D1F248406854
S315080019B000F48030B0F5803F0AD1EF48006800F4A3
S315080019C0003000285FD0606800285CD10120DBE782
S315080019D000BF6068B0F5803F06D1E748006840F46C
S315080019E08030E549086028E0606858B9E248006830
S315080019F020F48030E04908600846006820F480201A
S31508001A0008601AE06068B0F5A02F0BD1DA480068C4
S31508001A1040F48020D84908600846006840F48030C1
S31508001A2008600AE0D448006820F48030D24908608B
S31508001A300846006820F48020086000BF606888B106
S31508001A40FFF71AFA054606E0FFF716FA401B642860
S31508001A5001D9032098E7C848006800F40030002838
S31508001A60F2D010E0FFF708FA054606E0FFF704FA99
S31508001A70401B642801D9032086E7BF48006800F4A4
S31508001A8000300028F2D1207800F00200022857D151
S31508001A90B948406800F00C0050B1B748406800F0FB
S31508001AA00C00082818D1B448406800F4803098B96A
S31508001AB0B148006800F0020020B12069012801D071
S31508001AC0012061E7AC48006820F0F800616940EA47
S31508001AD0C100A949086033E02069E8B10120A74997
S31508001AE00860FFF7C9F9054606E0FFF7C5F9401B88
S31508001AF0022801D9032047E79F48006800F0020042
S31508001B000028F2D09C48006820F0F800616940EA95
S31508001B10C1009949086013E0002098490860FFF75A
S31508001B20ABF9054606E0FFF7A7F9401B022801D9DD
S31508001B30032029E79048006800F002000028F2D147
S31508001B40207800F0080008282DD1A069B8B1012036
S31508001B508B490860FFF790F9054606E0FFF78CF910
S31508001B60401B022801D903200EE78348406A00F08B
S31508001B7002000028F2D0012000F07EFD13E00020CC
S31508001B807F490860FFF778F9054606E0FFF774F91C
S31508001B90401B022801D90320F6E67748406A00F080
S31508001BA002000028F2D1207800F00400042873D13E
S31508001BB000277148C06900F0805070B900BF6E48B0
S31508001BC0C06940F080506C49C8610846C06900F099
S31508001BD08050009000BF00BF01276A48006800F4E3
S31508001BE08070B0B96748006840F48070654908603D
S31508001BF0FFF742F9054606E0FFF73EF9401B642861
S31508001C0001D90320C0E65F48006800F48070002808
S31508001C10F2D000BFE068012806D15748006A40F0B4
S31508001C2001005549086227E0E06858B95248006A39
S31508001C3020F00100504908620846006A20F00400B6
S31508001C40086219E0E06805280BD14B48006A40F0A5
S31508001C500400494908620846006A40F00100086223
S31508001C600AE04548006A20F0010043490862084630
S31508001C70006A20F00400086200BFE068A0B1FFF720
S31508001C80FBF8054609E0FFF7F7F8401B41F28831F3
S31508001C90884202D9032077E622E03748006A00F036
S31508001CA002000028EFD012E0FFF7E6F8054608E044
S31508001CB0FFF7E2F8401B41F28831884201D9032038
S31508001CC062E62D48006A00F002000028F0D1012FD4
S31508001CD005D12948C06920F080502749C86100BF4E
S31508001CE0E069C8B32448406800F00C00082860D0B2
S31508001CF0E069022848D1002020490866FFF7BCF8A9
S31508001D00054606E0FFF7B8F8401B022801D903206C
S31508001D103AE61948006800F000700028F2D1206AF7
S31508001D20B0F5803F07D11448406820F40030A16818
S31508001D30084311494860D4E9080108430E4949682F
S31508001D4021F4741108430C49486001200B490866C0
S31508001D50FFF792F8054607E03DE0FFF78DF8401BD0
S31508001D60022801D903200FE60348006800F0007036
S31508001D700028F2D02FE00000001002400000424286
S31508001D808004424200700040002014490866FFF7AC
S31508001D9073F8054606E0FFF76FF8401B022801D9DD
S31508001DA00320F1E50E48006800F000700028F2D123
S31508001DB011E0E069012800D1E6E50948466806F41D
S31508001DC08031206A814204D106F47011606A81422A
S31508001DD001D00120D8E50020D6E5000000004242E7
S31508001DE00010024070B504462546681EB0F1807F93
S31508001DF001D301200FE0681E4FF0E02148610F2152
S31508001E004FF0FF3000F068FD00204FF0E0218861B8
S31508001E1007200861002070BD10B504460CB90120E2
S31508001E2010BDA06900B100E000BF94F83D0028B9D4
S31508001E30002084F83C00204600F028F8242084F886
S31508001E403D002068C06820F400502168C86020461C
S31508001E5000F060FC2068006920F490402168086161
S31508001E602068406920F02A00216848612068C06817
S31508001E7040F400502168C86000202064202084F8BF
S31508001E803D0084F83E000020CAE7000010B586B081
S31508001E900446002002900390049005901A49206891
S31508001EA088422ED100BF1948806940F480401749FE
S31508001EB088610846806900F48040019000BF00BF31
S31508001EC000BF0846806940F00400886108468069BA
S31508001ED000F00400019000BF00BF481502900220E0
S31508001EE003900320059002A90948FEF725FE4FF442
S31508001EF08060029000200390049002A90448FEF72F
S31508001F001BFE06B010BD000000380140001002405C
S31508001F10000801402DE9F84F04460E461746994633
S31508001F204FF0000A94F83D0020285AD106B117B997
S31508001F300120BDE8F88F00BF94F83C00012801D1C4
S31508001F400220F6E7012084F83C0000BF0020206448
S31508001F50212084F83D00FEF78FFF8246A784E78498
S31508001F60A068B0F5805F04D1206910B90025B04695
S31508001F7002E035464FF0000800BF002084F83C0018
S31508001F8000BF1BE05346002280212046CDF8009072
S31508001F9000F03EFC08B10320CBE745B9B8F80000CD
S31508001FA0C0F308002168486008F1020803E02878B1
S31508001FB0216848606D1CE08C401EE084E08C002897
S31508001FC0E0D15346002240212046CDF8009000F08B
S31508001FD01FFC08B10320ACE7202084F83D00002050
S31508001FE0A7E70220A5E700BFFEE7014608684069A3
S31508001FF0C0F38020B0B16FF480600A685061002099
S315080020000863202081F83D00002081F83E00086C16
S3150800201040F00400086400BF002081F83C0000BFBF
S31508002020012070470020FCE72DE9F84304460F46D7
S3150800203015469946DDE908862068006840F4806000
S31508002040216808602068006840F48070216808608C
S31508002050434600224FF001112046009600F032F95F
S3150800206060B12068006800F48070B0F5807F02D106
S315080020704FF4007020640320BDE8F88307F0FE00E3
S3150800208021680861334642463E49204600F05DF91C
S3150800209008B10120F0E700BF0020009020684069E1
S315080020A0009020688069009000BF00BF3246414614
S315080020B0204600F0ECF950B1206C042805D12068C0
S315080020C0006840F40070216808600120D4E7B9F17F
S315080020D0010F03D1E8B22168086117E0C5F30720AC
S315080020E02168086132464146204600F0D0F950B1D1
S315080020F0206C042805D12068006840F40070216827
S3150800210008600120B8E7E8B221680861324641460E
S31508002110204600F0BCF950B1206C042805D120688F
S31508002120006840F40070216808600120A4E7206870
S31508002130006840F4807021680860434600224FF02A
S3150800214001112046009600F0BDF858B120680068D5
S3150800215000F48070B0F5807F02D14FF400702064DF
S31508002160032089E7F8B240F0010021680861334688
S3150800217042460449204600F0E8F808B101207BE70A
S31508002180002079E7020001002DE9F8430446884655
S3150800219015469946DDE908672068006840F48070AE
S315080021A021680860334600224FF001112046009747
S315080021B000F088F860B12068006800F48070B0F517
S315080021C0807F02D14FF4007020640320BDE8F883B5
S315080021D008F0FE00216808613B4632462149204640
S315080021E000F0B3F808B10120F0E700BF0020009026
S315080021F020684069009020688069009000BF00BF91
S315080022003A463146204600F042F950B1206C04287F
S3150800221005D12068006840F4007021680860012034
S31508002220D4E7B9F1010F03D1E8B22168086117E0D4
S31508002230C5F30720216808613A463146204600F072
S3150800224026F950B1206C042805D12068006840F4AE
S315080022500070216808600120B8E7E8B221680861C3
S315080022600020B3E70200010070B504460D46164685
S3150800227020E02046FFF7B9FE08B1012070BD681CB2
S31508002280C0B1FEF7F9FD801BA84200D895B9002019
S315080022902063202084F83D00002084F83E00206C4E
S315080022A040F02000206400BF002084F83C0000BFF6
S315080022B00120E3E720684069C0F380000028D8D0F1
S315080022C00020DBE72DE9F04104460D4617461E4679
S315080022D0DDF818801CE0701CD0B1FEF7CDFDA0EB30
S315080022E00800B04200D89EB900202063202084F858
S315080022F03D00002084F83E00206C40F02000206459
S3150800230000BF002084F83C0000BF0120BDE8F08132
S31508002310C5F3074001280AD120684069A9B20840D8
S31508002320A9B2884201D101200BE0002009E020680B
S315080023308069A9B20840A9B2884201D1012000E00B
S315080023400020B842C7D00020E0E72DE9F041044656
S315080023500D4616461F463DE020684069C0F38020BA
S31508002360E8B12068006840F40070216808606FF4DE
S3150800237080602168486100202063202084F83D00A1
S31508002380002084F83E00206C40F00400206400BF62
S31508002390002084F83C0000BF0120BDE8F081701CD5
S315080023A0C0B1FEF769FDC01BB04200D896B900203F
S315080023B02063202084F83D00002084F83E00206C2D
S315080023C040F02000206400BF002084F83C0000BFD5
S315080023D00120E2E7C5F3074001280AD120684069D1
S315080023E0A9B20840A9B2884201D101200BE0002019
S315080023F009E020688069A9B20840A9B2884201D1DB
S31508002400012000E000200028A6D00020C5E770B50E
S3150800241004460D46164632E020684069C0F30010AF
S31508002420A0B16FF0100021684861002020632020C9
S3150800243084F83D00002084F83E00206C206400BF2C
S31508002440002084F83C0000BF012070BDFEF714FD93
S31508002450801BA84200D895B900202063202084F864
S315080024603D00002084F83E00206C40F020002064E7
S3150800247000BF002084F83C0000BF0120E5E7206883
S315080024804069C0F380100028C6D00020DDE770B58B
S3150800249004460D46164620E02046FFF7A6FD08B17D
S315080024A0012070BD681CC0B1FEF7E6FC801BA8427F
S315080024B000D895B900202063202084F83D0000202C
S315080024C084F83E00206C40F02000206400BF002005
S315080024D084F83C0000BF0120E3E720684069C0F3A8
S315080024E0C0100028D8D00020DBE700002DE9FE4305
S315080024F004460D4616461F4640F6FF706100012346
S315080025002A46CDE9007602900348FEF7A3FD8046E9
S315080025104046BDE8FE830000500000202DE9FE433A
S3150800252004460D4616461F4640F6FF706100012315
S315080025302A46CDE9007602900348FEF73DFF80461D
S315080025404046BDE8FE8300005000002000B585B077
S315080025500020019002900390049000BF24488069EF
S3150800256040F01000224988610846806900F0100092
S31508002570009000BF00BF00BF0846806940F02000F9
S3150800258088610846806900F02000009000BF00BFFF
S3150800259000BF0846806940F00400886108468069E3
S315080025A000F00400009000BF00BF00BF0846806925
S315080025B040F0080088610846806900F0080000902D
S315080025C000BF00BF00224FF400510A48FEF74EFC38
S315080025D04FF4005001900120029000200390012042
S315080025E0049001A90348FEF7A7FA05B000BD00004C
S315080025F0001002400010014010B50B480B49086056
S315080026000B484860002109488160C1604FF4804149
S315080026100161002141618161C1610162FEF732FCFD
S3150800262008B1FEF771FA10BD0054004050000020B2
S31508002630801A060010B50B480B4908604FF4E130C4
S315080026404860002108488160C16001610C21416130
S3150800265000218161C161FFF7DFFB08B1FEF754FA7B
S3150800266010BD000000380140A400002000BFFEE7AE
S3150800267000BFFEE77047000008B508490968C908A1
S315080026804FF47A72B1FBF2F14143009100BF00BFEB
S3150800269000994A1E00920029F9D108BD00000020C1
S315080026A0704710B5FEF774FF10BD00B58FB028212E
S315080026B005A8FDF781FD14216846FDF77DFD01207B
S315080026C0059000040690002007900120099002203A
S315080026D00C90C1030D914FF4E0110E9105A8FFF778
S315080026E04FF908B1FEF710FA0F200090022001906A
S315080026F0002002904FF4806003900020049002218D
S315080027006846FFF707F808B1FEF7FEF90FB000BDF7
S315080027107047000070B504462168096921F44051E4
S31508002720E2681143226811612269A168114362694E
S3150800273041EA02052168C96841F20C6291432943BE
S315080027402268D1602168496921F44071A269114360
S31508002750226851612D4A2168914202D1FFF7B6F8E5
S3150800276001E0FFF7A3F800EBC00101EB0011626876
S315080027709200B1FBF2F100EBC00202EB00126368B3
S315080027809B00B2FBF3F26423B2FBF3F202EBC20343
S3150800279003EB0212A1EB8201322202EB0111642241
S315080027A0B1FBF2F101F0F00100EBC00202EB0012FE
S315080027B063689B00B2FBF3F26423B2FBF3F201EB0E
S315080027C0021200EBC00101EB001163689B00B1FB2C
S315080027D0F3F100EBC00303EB00136668B600B3FB26
S315080027E0F6F36426B3FBF6F303EBC30606EB031313
S315080027F0A1EB8301322303EB01116423B1FBF3F14F
S3150800280001F00F0111442268916070BD0038014043
S315080028102DE9F04104460D4617469846069E21E0E6
S31508002820701CF8B12EB1FEF727FBA0EB0800B042EA
S3150800283018D92068C06820F4D0702168C86020685C
S31508002840406920F0010021684861202084F83D0095
S3150800285084F83E0000BF002084F83C0000BF032037
S31508002860BDE8F081206800682840A84201D101200F
S3150800287000E00020B842D3D00020F1E700BFFEE711
S315080028800FB4054B10B503A9044A029800F078F96D
S3150800289010BC5DF814FB00007545000848000020D0
S315080028A0490050EAC12018BF04204A0D18BF40F05D
S315080028B0010040F2FF72B2EB515F08BF40F0020020
S315080028C0012808BF0520704702480068C0F30220A7
S315080028D0704700000CED00E010B5002804DB0A077D
S315080028E0130E054A135406E00A07140E034A00F0AD
S315080028F00F031B1FD45410BD00E400E018ED00E0E0
S315080029002DE9F0414F1E00EBC7010446D1E900014D
S3150800291015461E4637F006020DD02A463346FDF701
S31508002920D2FD7F1E04EBC703D3E90023FDF724FD80
S3150800293037F00602F1D1022F25D0042F13D0062F27
S3150800294018BFBDE8F0812A463346FDF7BCFDD4E939
S315080029500A23FDF711FD2A463346FDF7B4FDD4E9EF
S315080029600823FDF709FD2A463346FDF7ACFDD4E9F1
S315080029700623FDF701FD2A463346FDF7A4FDD4E9F3
S315080029800423FDF7F9FC2A463346FDF79CFDD4E9F6
S315080029900223FDF7F1FC2A463346FDF794FDD4E9F8
S315080029A00023BDE8F041FDF7E7BC0122FDF7E6BFCD
S315080029B0FDF7E2BC0022134610461146FDF7F5BDA9
S315080029C0024A00201107FDF7D9BF000001FDFFFFED
S315080029D002E008C8121F08C1002AFAD170477047DA
S315080029E0002001E001C1121F002AFBD17047000038
S315080029F001490860704700004C0000202DE9FF5F80
S31508002A0082B00021DDE90430020DDDF840B0034351
S31508002A1018D044F61050A2F2FF324243151411980A
S31508002A2001281FD0A5EB0B00401C5FEA000A4FF0F7
S31508002A3000064E4FDFF83891B046504615D5CAF114
S31508002A40000413E0119801244AA3012801D16FEA72
S31508002A500B010298119AC0E90031C0E9024206B09A
S31508002A60BDE8F09FCBF10000DFE704460021404AAD
S31508002A70491842EB0450CDE9001012E0E00707D0F0
S31508002A8032463B4640464946FDF71DFD8046894687
S31508002A9032463B4610461946FDF715FD06460F46D3
S31508002AA06410002CEAD1DDE90401DDE90023BAF15E
S31508002AB0000F06DAFDF707FD42464B46FDF703FD14
S31508002AC005E0FDF772FD42464B46FDF76EFD0446EE
S31508002AD00E460022284BFDF799FF03D84FF0FF302A
S31508002AE0014607E00022254B20463146FDF744FC07
S31508002AF0FDF75BFF102409E0002C0ADB0A220023FD
S31508002B00FDF756FE039B30321A55641E50EA010241
S31508002B10F2D1641C039AC4F111031444119A012AD0
S31508002B2003D0012208430DD10AE0084304D000204F
S31508002B304FF0110B119072E7A3EB0B056D1E0DE01C
S31508002B405B4504DD4FF0000205F1010504E003DAF8
S31508002B504FF00002A5F10105002AECD00298119960
S31508002B60C0E90231C0E9004579E7000000001440D9
S31508002B700000F03F300000000000F0430000E03F96
S31508002B802DE9FF4F95B09A46884606460025EEE1A0
S31508002B90252877D100242746F94A0121039400E025
S31508002BA0044316F8013F203B01FA03F01042F7D11F
S31508002BB030782A2811D06FF02F033078A0F1300230
S31508002BC0092A16D8039A44F0020402EB820203EBA0
S31508002BD042021044761C0390EFE758F8042B039240
S31508002BE0002A03DA504244F40054039044F00204E5
S31508002BF0761C30782E2816D116F8010F44F00404F6
S31508002C002A280DD06FF02F023078A0F13003092B57
S31508002C1009D807EB870302EB4303C718761CF3E7CB
S31508002C2058F8047B761C30786C280FD006DC4C28C4
S31508002C3017D068280DD06A2814D104E0742810D05B
S31508002C407A280FD10DE044F400140AE044F4801405
S31508002C5001E044F440147278824202D104F58014EB
S31508002C60761C761C307866280BD013DC582877D06B
S31508002C7009DC002875D04528F6D04628F4D0472820
S31508002C801AD193E118E0632835D0642879D06528ED
S31508002C9012D18BE1702873D008DC6728F1D0692837
S31508002CA06FD06E280DD06F2806D1ACE073282CD0D3
S31508002CB0752874D0782853D05246179990476D1CBA
S31508002CC054E1C4F30250022809D003280DD0D8F8DD
S31508002CD0001004280DD00D6008F1040846E1D8F864
S31508002CE00010EA17C1E90052F6E7D8F800100D807F
S31508002CF0F2E70D70F0E718F8041B8DF800100020B5
S31508002D008DF80100EB46012003E058F804BB4FF0AC
S31508002D10FF3061074FF0000102D40DE009F101010F
S31508002D208946B9420FDA8145F8DB1BF809100029F4
S31508002D30F4D108E009F1010189468142FADB1BF862
S31508002D4009100029F6D103985346A0EB0907214636
S31508002D503846179A00F080FA284400EB090507E080
S31508002D6044E008E10DE01BF8010B5246179990471D
S31508002D70B9F10109F7D2534621463846179AF2E0C7
S31508002D8039E00A21C4F302524FF0000B0091022ADF
S31508002D9006D058F8040BC117032A09D00AE023E025
S31508002DA008F1070020F00702F2E80201904605E064
S31508002DB000B2C117042A01D140B2C117002906DAA8
S31508002DC00A460021404261EB02012D2202E022055B
S31508002DD004D52B228DF80420012203E0E20701D056
S31508002DE02022F7E7914657E00A2100E010214FF02C
S31508002DF0000B00910BE010214FF0000B44F0040487
S31508002E000827009103E008204FF0000B0090C4F358
S31508002E100252022A05D058F8040B0021032A08D0CA
S31508002E2008E008F1070020F00702F2E802019046E0
S31508002E3003E080B2042A00D1C0B24FF0000922078D
S31508002E402AD53278702A07D0DDF800C08CF0100C2D
S31508002E505CEA0B0C05D00EE040228DF80420012216
S31508002E6008E050EA010306D030238DF804308DF8C7
S31508002E70052002229146009B83F0080353EA0B03C0
S31508002E800AD150EA010201D1620705D530228DF830
S31508002E9004204FF001097F1E3278582A04D039A23F
S31508002EA00C920CAA02920BE03BA2F9E75B46009A49
S31508002EB0FDF77EFC0C9B9B5C029A521E02921370D5
S31508002EC050EA0102F2D1029804A9081A00F1200B6F
S31508002ED0600702D524F4803400E001275F4502DD4F
S31508002EE0A7EB0B0000E0002000EB0B010090039815
S31508002EF04944401A0390E00306D453462146179ADC
S31508002F00039800F0A9F90544002706E001A85246EF
S31508002F10C05D179990476D1C7F1C4F45F6DBE00393
S31508002F200CD553462146179A039800F095F905449F
S31508002F3004E030205246179990476D1C0099481EA8
S31508002F4000900029F5DC08E00298029952460078BC
S31508002F50491C0291179990476D1CBBF10001ABF112
S31508002F60010BF1DC5BE100F065F90544761C30786D
S31508002F7000287FF40DAE19B02846BDE8F08F000092
S31508002F800928010030313233343536373839616231
S31508002F9063646566000000003031323334353637F5
S31508002FA0383941424344454600000000600700D4D2
S31508002FB0062708F1070020F00700F0E802238046FC
S31508002FC003F0004C5FEA0C0001D097A009E0200549
S31508002FD001D596A005E0E00701D095A001E0AFF283
S31508002FE04C001390307823F0004365280CD006DC9B
S31508002FF0452809D046281DD047287FD13BE06628BA
S3150800300018D067287AD136E00021112F01DB11206C
S3150800301000E0781CCDE9000104A90CA8FFF7EEFC36
S31508003020DDE90D010C9A4FF0000B07F1010910922A
S3150800303000914EE04FF000400097CDE9011004A939
S315080030400CA8FFF7DBFCDDE90D020C9B0F994FF08E
S31508003050000B91461093009211B9791C00EB0109F7
S31508003060B7EB090003D4C0F1FF3B07F10109A9EB4F
S315080030700700019042E0012F00DA01270021112FF5
S3150800308001DD112000E03846CDE9000104A90CA8AD
S31508003090FFF7B4FCDDE90D010C9A00914FF0000B27
S315080030A0B946109221070FD4009A4A4503DA914689
S315080030B001E0A9F10109B9F1010F05DD109AA9F19D
S315080030C00101515C3029F4D0B84202DA10F1040F3C
S315080030D003DA0121CDE9011010E0002803DC83445E
S315080030E0A9EB000102E0411C494500DD8946A0EB39
S315080030F00B00401C01904FF000400290200705D4B9
S315080031000198484502DB4FF0FF30019000208DF80A
S315080031104B0002980DF14B07B0F1004F25D0022065
S315080031200C902B200D90029800280CDA4042029051
S315080031302D200D9007E00A210298FDF723FB303178
S31508003140029007F8011D0C99481E0C900029F2DC24
S3150800315002980028EFD1791E0D980870307800F093
S31508003160200040F0450007F8020D11A8C01BC01D3D
S3150800317002901398007800B1012000EB090101982C
S3150800318001EBE071029801440398401A401E03902F
S31508003190E00306D453462146179A039800F05CF8D4
S315080031A005441398007818B15246179990476D1C34
S315080031B0E00323D553462146179A039800F04CF8A6
S315080031C005441BE0BBF1000F07DB0098584504DDFA
S315080031D01098179910F80B0001E0179930205246FD
S315080031E0904701980BF1010B401E05F1010501906E
S315080031F004D12E205246179990476D1CB9F100014B
S31508003200A9F10109DEDC05E017F8010B524617990A
S3150800321090476D1C0299481E02900029F4DC53461B
S315080032202146179A03989EE62D0000002B00000001
S31508003230200000002DE9F041044600251E461746E9
S31508003240880404D405E039462020B0476D1C641E66
S31508003250F9D52846BDE8F0812DE9F0410446002558
S315080032601E469046C80301D5302700E0202788046B
S3150800327004D505E041463846B0476D1C641EF9D5AD
S315080032802846BDE8F08100002DE9FE4F06460F46A8
S315080032900025684601F07CF9002442E056F824002F
S315080032A057F82410A0EB010ABAF1000F01DB5146CA
S315080032B001E0CAF100010846FDF7E6F983464FF03A
S315080032C08F41FDF71BF880465DF824000021FDF7C5
S315080032D045FA16D05DF824104046FDF70FF88246E9
S315080032E04FF07E51FCF7D2FF814629F0004A0F487D
S315080032F0416A5046FDF73CFA12D20120A040054328
S315080033000EE00A48C1694046FDF728FA05D3074882
S31508003310016A4046FDF72CFA02D20120A040054377
S31508003320641C032CBADB2846BDE8FE8F64610008DE
S315080033302DE9F04D8D4F21F0004A86B005460C4622
S31508003340BA452ADBAAEB070028430AD088488245F3
S3150800335001DC1AD1CDB106B02846BDE8F04DFFF71D
S3150800336024BB844A844B2846FDF7ADF807460E462B
S31508003370824A834B28462146FDF7A5F806B03A4609
S315080033803346BDE8F04DFCF7F7BF0120FFF730FBE9
S3150800339006B0BDE8F04DFFF70DBB7A48824542DA24
S315080033A0BAF1795F0BDA2846FFF77AFA042808BFDC
S315080033B0FFF706FB284606B02146BDE8F08D2A46EB
S315080033C00B461046FDF77FF8834602466E480E46C2
S315080033D00B4606217844FFF793FA5A463346FDF71B
S315080033E072F8804669488A465A4633460421784424
S315080033F0FFF786FA5A463346FDF765F800223B463C
S31508003400FCF7BAFF02460B4640465146FDF7CDF893
S315080034102A462346FDF757F806B02A462346BDE84E
S31508003420F04DFCF7A9BF284624F0004100223D468E
S315080034303B46FDF745F84FF0FF32FDF79FFA064683
S31508003440024653480F460B4606217844FFF758FABA
S3150800345032463B46FDF737F8CDE900014D4832467E
S315080034603B4604217844FFF74BFA32463B46FDF7C4
S315080034702AF800222B46FCF77FFF83460291304646
S31508003480394602F029FE804643480D46504517DC6A
S31508003490DDE900015A46029BFDF787F842462B46AE
S315080034A0FDF711F842462B46FCF766FF0122FDF7A9
S315080034B065FA304A304BFDF700F8304A304B4CE09D
S315080034C04FF0000A52460B464046FCF755FFCDE939
S315080034D0031052462B4610461946FCF7F4FF3246AF
S315080034E03B46FCF7EDFFDDE90332FDF75EF80646DD
S315080034F00F46DDE900015A46029BFDF756F883465A
S315080035000091012230463946FDF738FA194A1A4B16
S31508003510FCF7D6FF06460F46012240462946FDF728
S315080035202DFA5A46009BFCF7CEFF32463B46FCF77F
S31508003530C4FF06460F46012250462946FDF71EFAE5
S315080035400E4DDFF858802A464346FCF7B9FF324647
S315080035503B46FCF7B5FF2A464346FCF7B1FF002C6D
S31508003560D8BF81F0004106B0BDE8F08D0000F03FFD
S315080035700000F07F075C143326A6913C182D4454AE
S31508003580FB21F93F0000E03FB0390000C6390000D2
S315080035903A390000503900003333EF3FFB21E93F49
S315080035A02DE9F84F04460D4621F000400091734975
S315080035B0814211DC7249884201DC06D12CB12046D1
S315080035C02946BDE8F84FFFF7F0B96E48002DCCBF85
S315080035D06D496E49BDE8F88F6D49814211DD6D4927
S315080035E08142D8BF4FF0FF366DDD20462946FFF7EA
S315080035F057F9042808BFFFF7E3F920462946BDE82E
S31508003600F88F6549654F25F00045814233DD6449E9
S31508003610814219DD002632464FF08043204629466E
S31508003620FCF7AAFE80468A46012220462946FDF76F
S31508003630A5F900223B46FCF740FF42465346FCF7F5
S31508003640B4FF04460D463EE001260022BA463B4634
S3150800365020462946FCF790FE80460F460022534630
S3150800366020462946FCF729FF42463B46FCF79DFFC4
S3150800367004460D4627E04B4981421BDDDFF828A1A9
S3150800368002260022534620462946FCF71CFF002244
S315080036903B46FCF771FE80460F46002253462046FD
S315080036A02946FCF70AFF42463B46FCF77EFF0446DE
S315080036B00D4608E0032622462B4600203B49FCF728
S315080036C074FF04460D4622462B4610461946FCF75B
S315080036D0FAFE8B46824602460B46FCF7F4FE074680
S315080036E00246334888460B4606217844FFF708F910
S315080036F052465B46FCF7E7FE82462E488B463A461C
S31508003700434605217844FFF7FBF83A464346FCF75B
S31508003710DAFE02460B46002E504659460CDAFCF7EE
S315080037202BFE22462B46FCF7CEFE01B022462B4640
S31508003730BDE8F04FFCF7C4BEFCF71EFE22462B463A
S31508003740FCF7C1FE1C4A7A4402EBC603D3E9002300
S31508003750FCF7B3FE22462B46FCF7AFFE174A7A441F
S3150800376002EBC603D3E90023FCF7AAFE009A002A57
S31508003770B8BF81F00041BDE8F88F00000000104492
S315080037800000F07F182D4454FB21F93FFB21F9BFB7
S315080037900000DC3F0000203E0000F33F0000F03F41
S315080037A00000E63F008003400000F83F0000F0BF3D
S315080037B05237000010370000AE360000763600009B
S315080037C02DE9F04D9446CCF1000423F000464CEA6E
S315080037D00404594F46EAD4749A46884621F00042B2
S315080037E0BC4206D8454240EA050442EAD474BC42C3
S315080037F004D9BDE8F04D6246FFF7DAB8AAF140559C
S31508003800A5F17F6555EA0C040BD0022404EAAA74D4
S315080038104A4DDFF82CE144EAD87452EA000B04D08A
S315080038200CE0BDE8F04DFFF7BBBE002C14BF012C21
S31508003830BDE8F08D022C30D0032C32D056EA0C0BA2
S315080038400AD0BE4220D1BA4209D126F0804622F0DB
S3150800385080423346114617E000291ADB25E0DFF8D7
S31508003860E4B0FB44002C04BFDBE90001BDE8F08DA1
S31508003870012C02BFDBE9000181F00041BDE8F08DB3
S31508003880022C0AD0032C0CD0BA4212D1B8F1000F80
S315080038900BDA2A482C49BDE8F08D28462B49BDE8A5
S315080038A0F08D28467146BDE8F08D24482849BDE8C4
S315080038B0F08D921B12153C2AC4BF204F244E10DCF3
S315080038C0BAF1000FBEBF12F13C0F00273E4608DBD7
S315080038D06246FCF76AFE21F00041FFF761FE0746E3
S315080038E00E4694B1012C08BF86F000460DD0194A41
S315080038F0194B022C3846314615D0FCF7DEFD2A4610
S31508003900BDE8F04D114BFCF7D8BD002213463846EA
S315080039103146FDF763F804BF0220FFF769F8384619
S315080039203146BDE8F08DFCF7C8FD2A46BDE8F04DE6
S31508003930064BFCF7C5BD00000000F07F182D445467
S31508003940FB2109C00A360000FB21F9BFFB2109400B
S31508003950FB21F93F075C143326A6A13C2DE9F0416B
S315080039600446E07800F0C006E07800F03F0560788D
S3150800397000F0010098B1EF102846E91705EB5171E0
S31508003980C910A5EBC101491C01F0FF080B480068E6
S3150800399020B10A48414602683846904700BF607819
S315080039A000F0080030B10548406818B1B011034A64
S315080039B0516888470020BDE8F0810000E800002033
S315080039C038B5044664B120208DF8000028208DF80B
S315080039D0010030208DF8020038208DF8030004E03D
S315080039E0A32204216846FCF7E0FB6A46042140F658
S315080039F09E2002F09FFA01F089FE38BD3EB50446C6
S31508003A0002208DF80000CA208DF80100E3208DF809
S31508003A10020009208DF803006A460421682002F096
S31508003A2089FAA3208DF8000004F0400048B1C020B0
S31508003A308DF80100C8208DF80200C2208DF8030019
S31508003A4006E0A3208DF801008DF802008DF803002A
S31508003A5004F4C07048B1C4208DF80400CC208DF859
S31508003A600500C6208DF8060006E0A3208DF80400A0
S31508003A708DF805008DF80600A3208DF807008DF84F
S31508003A8008008DF809006A460A2140F6A72002F0C8
S31508003A9051FA04F0030018B120208DF8000002E066
S31508003AA0D8208DF800006A46012140F6B62002F0BB
S31508003AB041FA04F0200018B1012000F0ADF802E048
S31508003AC0002000F0A9F804F4C07008B304F480706C
S31508003AD060B1B2208DF800008B208DF80100B62069
S31508003AE08DF802009B208DF803000BE0B0208DF8BE
S31508003AF0000080208DF80100B4208DF80200902087
S31508003B008DF803006A46042140F6A22002F012FA54
S31508003B1004F0010020B3F8208DF800006A46012160
S31508003B204FF40B6002F006FAFA21072000F02CFC8D
S31508003B30072000F0F3FB012000F013FC642000F0DE
S31508003B40F3FC4FF4FA7000F002FDC821304800F08B
S31508003B50A3FB282000F0BCFB0A2000F0CCFB08E001
S31508003B60D8208DF800006A4601214FF40B6002F058
S31508003B70E1F904F0020018B1D9208DF8000002E03E
S31508003B80D8208DF800006A46012140F23D7002F007
S31508003B90D1F904F0040018B1012000F069F802E038
S31508003BA0002000F065F804F0100018B10120FFF7B6
S31508003BB007FF02E00020FFF703FF44F0080015495D
S31508003BC0488101F0A3FD00201249887304F04000E3
S31508003BD018B10846807B801D887304F4C07020B134
S31508003BE00C48807B801D0B49887304F0140020B1B3
S31508003BF00848807B10300749887304F0030020B119
S31508003C000448807B001D0349887300203EBD0000E0
S31508003C1009E3CA02E80000203EB504466CB10EA1CD
S31508003C20D1E900208968CDE9002002916A46092178
S31508003C304FF4976002F07EF93EBD0AA2D2E9001061
S31508003C409268CDE9010200916A4609214FF497600E
S31508003C5002F070F9F0E70000B8AAB38DB4980D35F4
S31508003C605D000000B8AAAAAAB088C3C5C7000000AC
S31508003C7038B5044664B1C0208DF80000C2208DF81E
S31508003C800100C4208DF80200C6208DF8030004E068
S31508003C908B2204216846FCF788FA6A46042140F616
S31508003CA0982002F047F901F031FD38BD10B5C82358
S31508003CB04FF48062024940F6F63001F0BBFB10BDB6
S31508003CC08C6100082DE9F04F8DB0074688461546E9
S31508003CD09946DDE9166B0024002030806B49887B05
S31508003CE05A4605A901F072FC18B1601E0DB0BDE870
S31508003CF0F08F6648807A00F01400002867D09DF897
S31508003D00140000069DF8151040EA01409DF81610AB
S31508003D1040EA01209DF81710084328609DF818000E
S31508003D2000069DF8191040EA01409DF81A1040EA6D
S31508003D3001209DF81B10084368609DF81C000006CA
S31508003D409DF81D1040EA01409DF81E1040EA01202A
S31508003D509DF81F100843A8609DF8200000069DF8EE
S31508003D60211040EA01409DF8221040EA01209DF802
S31508003D7023100843E86004F11000C4B22868001450
S31508003D800190686800140290A86800140390E86817
S31508003D900014049001984043029901FB010003991D
S31508003DA001FB0100049901FB010ABAF1706F02DBFD
S31508003DB0BAF1885F05DD01F0A9FC00203080401EBD
S31508003DC094E7B6F9000040F48070308000BF2F48B1
S31508003DD0807A00F0400020B305A9601C085C095DE4
S31508003DE040EA012000B2A8F8000005A9E01C095C19
S31508003DF005AAA01C105C41EA002000B2A8F802003F
S31508003E0005A9601D095C201D105C41EA002000B26E
S31508003E10A8F80400A01DC4B2B6F9000040F00800D6
S31508003E2030801A48408900F4C07008B305A9601CA0
S31508003E30085C095D40EA012000B2388005A9E01C4B
S31508003E40095C05AAA01C105C41EA002000B2788033
S31508003E5005A9601D095C201D105C41EA002000B21E
S31508003E60B880A01DC4B2B6F9000040F070003080DA
S31508003E700648807A00F0030018B105A90819FFF76B
S31508003E806DFD484600F06AFF00202FE7E800002095
S31508003E9070B588B0064601A801F020F9BDF80400FF
S31508003EA00021C90341EA5045C4034448007A00F09A
S31508003EB0030056F8200005904048007A00F00400F8
S31508003EC010B10598404205903C48007AC0F3C100FD
S31508003ED056F8200006903948007A00F0200010B104
S31508003EE00698404206903548007AC0F3811056F885
S31508003EF0200007903148008900F4807010B10798B7
S31508003F00404207900598C117A0FB042301FB043122
S31508003F1000FB0510810041EA927005900698C117CA
S31508003F20A0FB042301FB043100FB0510810041EAD4
S31508003F30927006900798C117A0FB042301FB043171
S31508003F4000FB0510810041EA927007900598000E63
S31508003F508DF808000598000C8DF809000598000AE8
S31508003F608DF80A000598C0B28DF80B000698000E69
S31508003F708DF80C000698000C8DF80D000698000ABE
S31508003F808DF80E000698C0B28DF80F000798000E3F
S31508003F908DF810000798000C8DF811000798000A94
S31508003FA08DF812000798C0B28DF8130002AA0C21EA
S31508003FB04FF4257001F0BEFF08B070BDE800002080
S31508003FC030B585B0044616A207CA02AB07C3C82C8B
S31508003FD003DD4FF0FF3005B030BDC82090FBF4F08C
S31508003FE0401E85B2280A8DF80000E8B28DF8010057
S31508003FF06A46022140F2162001F09CFF10B14FF0EC
S31508004000FF30E8E702AA0C2140F6C12001F092FF32
S3150800401010B14FF0FF30DEE7044884810020DAE76C
S31508004020FEF2ABC4AAF1DFDFBBAFDFDFE80000209A
S315080040301FB504464848007A00F0030054F82000EB
S3150800404001904548007A00F0040010B101984042FA
S3150800405001904148007AC0F3C10054F8200002904C
S315080040603D48007A00F0200010B1029840420290C4
S315080040703948007AC0F3811054F820000390364876
S31508004080008900F4807010B10398404203903349C8
S31508004090019880FB0101800F40EA810001902F49B9
S315080040A0029880FB0110820042EA917002902B4927
S315080040B0039880FB0110820042EA917003900198F0
S315080040C0000E8DF800000198000C8DF8010001988B
S315080040D0000A8DF802000198C0B28DF803006A46FE
S315080040E004214FF4747001F025FF18B14FF0FF302A
S315080040F004B010BD0298000E8DF800000298000C5E
S315080041008DF801000298000A8DF802000298C0B2E4
S315080041108DF803006A4604214FF4757001F00AFF12
S3150800412010B14FF0FF30E3E70398000E8DF800005A
S315080041300398000C8DF801000398000A8DF8020018
S315080041400398C0B28DF803006A4604214FF47670CE
S3150800415001F0F0FECCE70000E800002009E3CA02FF
S3150800416010B586B0044647A00068039046A00068CC
S31508004170029046A00068019045A00068009004F0EF
S31508004180030003A9085C8DF8140003A8C4F3C10151
S31508004190405C8DF8150003A8C4F38111405C8DF8C6
S315080041A0160004F0030002A9085C8DF8100002A8A6
S315080041B0C4F3C101405C8DF8110002A8C4F3811153
S315080041C0405C8DF8120005AA032140F2264001F052
S315080041D0B1FE18B14FF0FF3006B010BD04AA032196
S315080041E040F22A4001F0A6FE10B14FF0FF30F3E787
S315080041F0019805900098049004F0040058B19DF8C1
S31508004200140040F001008DF814009DF8100040F0ED
S3150800421001008DF8100004F0200058B19DF8150033
S3150800422040F001008DF815009DF8110040F00100DE
S315080042308DF8110004F4807058B19DF8160040F00E
S3150800424001008DF816009DF8120040F001008DF867
S31508004250120005AA03214FF4886001F06BFE10B125
S315080042604FF0FF30B8E704AA032140F2314001F0CD
S3150800427061FE10B14FF0FF30AEE70648048100201A
S31508004280AAE700004CCD6C000CC92C003656760007
S3150800429026466600E8000020F8B505460E464FF4A7
S315080042A07A7095FBF0F000FB06F4200E8DF80000FE
S315080042B0200C8DF80100200A8DF80200E0B28DF876
S315080042C003006A4604214FF4AE7001F033FEF8BDD0
S315080042D038B50446052094FBF0F084B220128DF818
S315080042E00000E0B28DF801006A4602214FF4AD7075
S315080042F001F020FE38BD38B50446052094FBF0F0E1
S3150800430084B220128DF80000E0B28DF801006A46EA
S3150800431002214FF4AC7001F00DFE38BD38B50446E5
S315080043200020009004F0010020B19DF8000040F044
S315080043303000009004F0020020B19DF8000040F023
S315080043400C00009004F0040020B19DF8000040F035
S31508004350030000906A4601214FF4A47001F0EAFDBB
S3150800436038BD38B50446012C01DA012402E0042CD4
S3150800437000DD0424601EC0B200906A46012140F2A6
S315080043804F1001F0D7FD38BD2DE9FC4706460F460C
S3150800439006F0070010B1B7F5C86F03DD4FF0FF3020
S315080043A0BDE8FC873846FCF778F981465949FBF79A
S315080043B0A5FF8046684600F06BFE9DF800000228BF
S315080043C006D0042816D0082826D0102848D135E06B
S315080043D04FF08D414046FBF75FFF8146FCF77BF9BE
S315080043E084B24D494046FBF757FF8146FCF773F9FF
S315080043F085B238E04FF08C414046FBF74DFF8146C9
S31508004400FCF769F984B245494046FBF745FF814602
S31508004410FCF761F985B226E04FF08B414046FBF781
S315080044203BFF8146FCF757F984B23D494046FBF706
S3150800443033FF8146FCF74FF985B214E04FF08A4105
S315080044404046FBF729FF8146FCF745F984B2354912
S315080044504046FBF721FF8146FCF73DF985B202E0AD
S315080044604FF0FF309CE700BF20128DF80400E0B241
S315080044708DF8050028128DF80600E8B28DF80700B9
S3150800448006F00100A0B101AA02214FF4EA7001F07A
S3150800449051FD10B14FF0FF3082E70DF106020221FF
S315080044A04FF4927001F046FD10B14FF0FF3077E7F8
S315080044B006F00200A0B101AA02214FF4EC7001F047
S315080044C039FD10B14FF0FF306AE70DF106020221FF
S315080044D04FF4947001F02EFD10B14FF0FF305FE7F6
S315080044E006F00400A0B101AA02214FF4EE7001F013
S315080044F021FD10B14FF0FF3052E70DF106020221FF
S315080045004FF4967001F016FD10B14FF0FF3047E7F3
S31508004510002045E700004843000040460000C0452B
S31508004520000040450000C04438B50446052094FB09
S31508004530F0F085B228128DF80000E8B28DF8010077
S315080045406A4602214FF4EF7001F0F4FC38BD38B525
S315080045500446052094FBF0F085B228128DF8000079
S31508004560E8B28DF801006A4602214FF4ED7001F0B9
S31508004570E1FC38BD13B50C464FF6FF7301226946B8
S315080045800248FDF7C7FC00981CBD0000A4000020E7
S315080045907CB5054628494968087801AB04220D21EF
S315080045A0FDF7A4FF08B107207CBD9DF80700C0F3FE
S315080045B001109DF8041001F0E00140EAE1008DF8D1
S315080045C000009DF80700C0F381009DF8051001F072
S315080045D0E00140EAE1008DF801009DF8070000F0CF
S315080045E003009DF8061001F0E00140EAE1008DF8AD
S315080045F0020000241CE01DF8040018B9002045F844
S31508004600240013E00D4845F8240006E055F8240078
S315080046100B49FBF741FE45F824001DF80400401E2F
S31508004620C0B20DF804000028F0D100BF601CC4B267
S31508004630032CE0DB0020B7E7100000207B14AE3E19
S315080046401D5A843F2DE9F04F87B005460C46914622
S3150800465001208DF8100000208DF81100FE4A12681E
S31508004660917CFD4A5268107804AB0222FDF756FF8A
S3150800467020B14FF0FF3007B0BDE8F08FC820FCF737
S3150800468047FA00208DF81000F34A1268D17BF24AE7
S315080046905268107804AB0122FDF740FF10B14FF0C5
S315080046A0FF30E8E7EC4A12685179EB4A526810780D
S315080046B004AB0122FDF732FF10B14FF0FF30DAE705
S315080046C0E54A1268917CE44A5268107804AB0122E4
S315080046D0FDF724FF10B14FF0FF30CCE7DE4A126831
S315080046E0D17DDD4A5268107804AB0122FDF716FF2A
S315080046F010B14FF0FF30BEE7D74A12681179D64A93
S315080047005268107804AB0122FDF708FF10B14FF08C
S31508004710FF30B0E70C208DF81000CF4A12681179E7
S31508004720CD4A5268107804AB0122FDF7F7FE10B1A6
S315080047304FF0FF309FE70F20FCF7EAF9C648806A7A
S31508004740407A8DF81000C44A12689178C24A5268B5
S31508004750107804AB0122FDF7E1FE10B14FF0FF30EF
S3150800476089E7BD48806A007A8DF81000BA4A12684F
S315080047705178B94A5268107804AB0122FDF7CEFE8B
S3150800478010B14FF0FF3076E7B9F1000F07D0B24805
S31508004790806A807A40F0E0008DF8100004E0AE48A8
S315080047A0806A807A8DF81000AB4A12689179AA4A15
S315080047B05268107804AB0122FDF7B0FE10B14FF035
S315080047C0FF3058E7B9F1000F07D0A348806AC07ACE
S315080047D040F0E0008DF8100003E0A048C07A8DF89C
S315080047E010009D4A1268D1799B4A5268107804AB2A
S315080047F00122FDF793FE10B14FF0FF303BE7B9F108
S31508004800000F02D0C820FCF783F940208DF810006D
S31508004810914A12681179904A5268107804AB0122BD
S31508004820FDF77CFE10B14FF0FF3024E778208DF8B5
S315080048301000894A12685179874A5268107804AB81
S315080048400122FDF76BFE10B14FF0FF3013E78349E5
S315080048508889FCF75DF900208DF810007E4A1268F9
S3150800486051797D4A5268107804AB0122FDF756FE4D
S3150800487010B14FF0FF30FEE6774A1268917A764A11
S315080048805268107804AB0222FDF730FE10B14FF0E3
S31508004890FF30F0E69DF811009DF8101040EA012B54
S315080048A00C209BFBF0F0C6B20020A8606860286068
S315080048B0A06060602060824665E0674A1268D17A27
S315080048C0654A5268107804AB0C22FDF70FFE10B14A
S315080048D04FF0FF30CFE69DF811009DF8101040EA22
S315080048E0012000B2ADF808009DF813009DF81210DB
S315080048F040EA012000B2ADF80A009DF815009DF8BF
S31508004900141040EA012000B2ADF80C00BDF90810F9
S31508004910206808442060BDF90A1060680844606091
S31508004920BDF90C10A0680844A0609DF817009DF812
S31508004930161040EA012000B2ADF800009DF81900F3
S315080049409DF8181040EA012000B2ADF802009DF863
S315080049501B009DF81A1040EA012000B2ADF80400C9
S31508004960BDF90010286808442860BDF90210686877
S3150800497008446860BDF90410A8680844A8600AF1EC
S31508004980010000F0FF0AB24597DB3448D0F800C0B2
S315080049902868C117090441EA104107046246002342
S315080049A03846FBF7C1FB32460023CDE90201FBF787
S315080049B0BBFB28602948D0F800C06868C1170904FD
S315080049C041EA10410704624600233846FBF7ACFB70
S315080049D032460023CDE90201FBF7A6FB68601F48B3
S315080049E0D0F800C0A868C117090441EA10410704B5
S315080049F0624600233846FBF797FB32460023CDE98B
S31508004A000201FBF791FBA8601448D0F804C020689F
S31508004A10C117090441EA10410704624600233846D3
S31508004A20FBF782FB32460023CDE90201FBF77CFB4C
S31508004A3020600A48D0F804C06068C117090441EA32
S31508004A4010410704624600233846FBF76DFB3246E1
S31508004A500023CDE9020103E010000020646100088C
S31508004A60FBF762FB60601148D0F804C0A068C11764
S31508004A70090441EA10410704624600233846FBF759
S31508004A8053FB32460023CDE90201FBF74DFBA0603C
S31508004A90A068002804DDA068A0F58030A06003E0C7
S31508004AA0A06800F58030A0600020E4E56461000895
S31508004AB02DE9FC5F06460F4600253D4949680878FA
S31508004AC001AB03220D21FDF711FD10B10720BDE84A
S31508004AD0FC9F9DF8040000F01F008DF804009DF867
S31508004AE0050000F01F008DF805009DF8060000F08F
S31508004AF01F008DF80600002456E056F8240057F8E3
S31508004B002410A0EB010BBBF1000F01DB594601E0B5
S31508004B10CBF100010846FBF7B7FD4FF08F41009037
S31508004B20FBF7ECFB814601A8005D68B321490868DC
S31508004B30FBF7B3FD834659461F48FBF7DFFB804664
S31508004B4004E01E494046FBF7A7FB804601A8005D26
S31508004B50401EC0B201A908550028F2D14146484670
S31508004B60FBF7CCFB83464FF07E51FBF78FFB824663
S31508004B702AF0004B0F4881695846FBF7F9FD12D217
S31508004B800120A04005430EE00A4801694846FBF7A4
S31508004B90E5FD05D3074841694846FBF7E9FD02D21A
S31508004BA00120A0400543641C032CA6DB28468EE79B
S31508004BB0100000206461000800B04C4554E3853FAE
S31508004BC010B50446204600F00FF80346E01C00F036
S31508004BD00BF843EAC00083B2A01D00F005F843EACB
S31508004BE0801083B2184610BD014691F90020002AAC
S31508004BF001DD00201EE091F90020002A01DA0420D8
S31508004C0018E091F90120002A01DD012012E091F94E
S31508004C100120002A01DA05200CE091F90220002A79
S31508004C2001DD022006E091F90220002A01DA0620B9
S31508004C3000E007207047000088B0FCF7B5FCFDF7D8
S31508004C4034FDFDF783FCFDF7D7FCFDF7F3FC0122E5
S31508004C5051032848FCF70AF927A0FDF711FE0020A2
S31508004C60049040F6FF70012104AA0B46CDE9002105
S31508004C7002907522D0212848FCF7ECF99DF810001F
S31508004C80682803D125A0FDF7FBFD04E09DF8101068
S31508004C902AA0FDF7F5FD02E0C820FBF739FF00F072
S31508004CA0A9F90028F8D124E00220FBF731FF05AA6C
S31508004CB006A907A800F08CF8D8B94FF400510D489A
S31508004CC0FCF7CAF80598FBF71AFD04460D46069840
S31508004CD0FBF715FD06460F460798FBF710FD8046BD
S31508004CE042460B461AA0CDE90067CDE90245FDF715
S31508004CF0C7FDD9E7001001402D2D204D70753630BF
S31508004D0035302050726F6A6563742053746172740B
S31508004D10202D2D200D0A0000500000206D707536DC
S31508004D2030353020494420526561643A204F4B2083
S31508004D30617420307836380D0A00000045727220FA
S31508004D406D70752069643A307825780D0A00000080
S31508004D5025662C25662C25660D0A0000704700007E
S31508004D6070B50446002624F00104184890F824007B
S31508004D7008B1002070BD1548807A10B94FF0FF3091
S31508004D80F8E71248057C807A2040104908740846DE
S31508004D90007CA04202D04FF0FF3600E0002614B98E
S31508004DA00A48007D18B1012001F04EF902E0002002
S31508004DB001F04AF93CB100F0A9FC20B1034805749A
S31508004DC04FF0FF30D6E73046D4E700001000002049
S31508004DD02DE9F04F99B004460D4616464FF07E571A
S31508004DE04FF000084FF000094FF0000A12A813A967
S31508004DF018AB0EAACDE9001014A916A8FEF762FF93
S31508004E0018B1012019B0BDE8F08FBDF84C0000F4C8
S31508004E10807000287ED00E98FBF736FC83464FF04C
S31508004E209D41FBF76BFA07460F98FBF72DFC834667
S31508004E304FF09D41FBF762FA80461098FBF724FC79
S31508004E4083464FF09D41FBF759FA81461198FBF7C7
S31508004E501BFC83464FF09D41FBF750FA82463946C4
S31508004E604FF08040FBF718FA49460590FBF714FA0D
S31508004E70414607904FF04040FBF70EFA5146059021
S31508004E80FBF70AFA06900799FBF7AEF98346FBF794
S31508004E9036FCCDE90801FEF74BFA4FF06632544B63
S31508004EA0CDE90A01FBF70FFBCDE90C01FBF73AFC4C
S31508004EB0206049464FF08040FBF7EEF949460290DC
S31508004EC0FBF7EAF9414604904FF04040FBF7E4F956
S31508004ED041460290FBF7E0F903900499FBF7D6F9EF
S31508004EE083464FF07E51FBF77FF90590FBF707FCE9
S31508004EF0CDE9080139464FF08040FBF7CDF9414628
S31508004F000390FBF7C9F9494604904FF08040FBF738
S31508004F10C3F900E068E051460390FBF7BDF9834604
S31508004F200499FBF761F90590FBF7E9FBCDE9060162
S31508004F30DDE90823FEF744FC4FF066322C4BCDE939
S31508004F400A01FBF7C0FACDE90C01FBF7EBFB286079
S31508004F5051465046FBF7A0F9494604904846FBF7E8
S31508004F609BF9414603904046FBF796F9394601906E
S31508004F703846FBF791F900900199FBF735F902904D
S31508004F800399FBF783F983460499FBF77FF90590A4
S31508004F90FBF7B5FBCDE9080151463846FBF77CF926
S31508004FA0494604904046FBF777F903900499FBF7C6
S31508004FB01BF94FF080410590FBF76EF98346FBF726
S31508004FC09EFBCDE90601DDE90823FEF7F9FB4FF064
S31508004FD06632074BCDE90A01FBF775FACDE90C01F4
S31508004FE0FBF7A0FB306001E002200BE7002009E791
S31508004FF066A64C4070B5002400F024F9002840D17C
S31508005000782000F02FFFC4B20CB1012070BD7820C3
S31508005010FFF7A6FEC4B20CB10220F7E7642000F041
S31508005020D3FEC4B20CB10320F0E7FEF73FFEC4B2CC
S315080050300CB10420EAE71548FFF7C2FD0546FFF75D
S315080050408FF8C4B20CB10520E0E740F27310FEF702
S31508005050D5FCC4B20CB10620D8E76420FEF7B0FF31
S31508005060C4B20CB10720D1E700F0A4FF04460CB186
S315080050700820CBE7012000F0A3FDC4B21CB109202B
S31508005080C4E70A20C2E70020C0E700003C00002071
S3150800509001461148407A30B1012807D0022808D0C5
S315080050A003280CD108E0022008700BE004200870E1
S315080050B008E00820087005E01020087002E04FF0AC
S315080050C0FF30704700BF0448C07C18B10878400616
S315080050D0000E08700020F4E710000020014613486F
S315080050E0407A30B1012808D002280AD0032810D106
S315080050F00BE04FF4804008800EE041F69C70088073
S315080051000AE04FF48050088006E04FF400600880FB
S3150800511002E04FF0FF30704700BF0448C07C10B172
S315080051200888401008800020F5E7000010000020DD
S3150800513001460248007C08700020704710000020D5
S3150800514001460F48007A30B1012807D0022809D055
S3150800515003280FD10AE0FA2008800EE04FF4FA700F
S3150800516008800AE04FF47A70088006E04FF4FA6087
S31508005170088002E00020088000BF00BF00207047BA
S315080051801000002001460E48007A30B1012807D0E9
S31508005190022808D003280CD108E00A4808600BE06A
S315080051A00948086008E00948086005E008480860FA
S315080051B002E04FF0FF30704700BF0020FBE7000019
S315080051C010000020000003430000834233330342EB
S315080051D03333834101461248C07A082817D2DFE8DC
S315080051E000F01704070A0D101318BC20088013E0F6
S315080051F06220088010E02A2008800DE0142008802C
S315080052000AE00A20088007E00520088004E000BFBD
S3150800521000BF0020088000BF00BF002070470000C4
S31508005220100000200146064890F8240010B14FF0FF
S31508005230FF3070470248C08908800020F9E700005F
S31508005240100000201CB580208DF80000654A126801
S31508005250917C644A526810786B460122FDF75EF924
S3150800526010B14FF0FF301CBD6420FBF751FC002045
S315080052708DF800005B4A1268917C5A4A5268107889
S315080052806B460122FDF74AF910B14FF0FF30EAE705
S31508005290544A1268917D534A526810786B46062222
S315080052A0FDF724F910B14FF0FF30DCE79DF8050053
S315080052B0C007400F9DF8031001F0010140EA4100C4
S315080052C09DF8011001F0010140EA010494B1012C96
S315080052D003D101214348C17431E0022C03D10021D6
S315080052E04048C1742BE021463FA0FDF7C9FA4FF0AC
S315080052F0FF30B8E73B4A1268D1783A4A52681078C4
S315080053006B460122FDF7F2F810B14FF0FF30AAE71D
S315080053109DF8000000F00F042CB93D48FDF7B0FADF
S315080053204FF0FF309FE7042C06D13AA0FDF7A8FA04
S3150800533001212C48C17402E000212A48C174FF21CA
S3150800534028488172FF2027490872FF2125484172A3
S31508005350C1724FF6FF71C181FF2101748174012169
S31508005360017380F82210002180F823104175017519
S315080053701630016041608160163880F8241080F884
S315080053802510C1844FF4FA6000F062FC10B14FF0AA
S31508005390FF3068E7022000F02BFB10B14FF0FF301A
S315080053A061E72A2000F0CEFC10B14FF0FF305AE733
S315080053B0322000F009FD10B14FF0FF3053E700200E
S315080053C0FFF7CEFC10B14FF0FF304CE7002000F09D
S315080053D051FB10B14FF0FF3045E7002000F042FDC9
S315080053E0002040E710000020556E737570706F72CC
S315080053F074656420736F6674776172652070726F66
S3150800540064756374207265762025642E0A00000090
S31508005410786E000848616C662073656E73697469F6
S3150800542076697479207061727420666F756E642E61
S315080054300A0000002DE9F04385B005460E46904661
S315080054409946294890F8250020B14FF0FF3005B05D
S31508005450BDE8F08316B94FF0FF30F8E7002423E0E3
S31508005460281B102801DD102000E0281B87B23219FE
S315080054703946204600F05EFD10B14FF0FF30E6E7F2
S3150800548001AA3946204600F001F910B14FF0FF3065
S31508005490DDE730193A4601A9FAF799FE10B16FF01F
S315080054A00100D4E7E01984B2AC42D9DB4FEA2820E0
S315080054B08DF8000008F0FF008DF801000A4A12680E
S315080054C0917E094A526810786B460222FDF726F843
S315080054D010B14FF0FF30BAE70121034880F82510D4
S315080054E0A0F826900020B2E71000002038B5044640
S315080054F0282C02DD4FF0FF3038BDDCB9002000F063
S31508005500EBFB00208DF8000007208DF801002E4ADD
